:020000040800F2
:10000000300400204901000825040008930300087B
:1000100021040008CD0100083B0B0008000000008F
:100020000000000000000000000000007106000851
:10003000D101000800000000AD0400088507000899
:100040006301000863010008630100086301000800
:1000500063010008630100086301000863010008F0
:1000600063010008630100086301000863010008E0
:1000700063010008630100086301000863010008D0
:1000800063010008630100086301000863010008C0
:1000900063010008630100086301000863010008B0
:1000A00063010008630100086301000863010008A0
:1000B0006301000863010008630100086301000890
:1000C0006301000863010008630100086301000880
:1000D000630100082D0800086301000829090008D1
:1000E0006301000863010008630100086301000860
:1000F0006301000863010008630100086301000850
:10010000630100086301000863010008630100083F
:1001100063010008E90700086301000863010008A3
:10012000630100086301000863010008630100081F
:10013000DFF810D000F01AF8004800474D0C000816
:10014000AFF300803004002006488047064800478F
:10015000FEE7FEE7FEE7FEE7FEE7FEE7FEE7FEE777
:10016000FEE7FEE78907000831010008064C074D4D
:1001700006E0E06840F0010394E807009847103477
:10018000AC42F6D3FFF7D8FF880C0008A80C000893
:1001900010B500F0F9FA4FF4A06000F07DF900F01E
:1001A000DDFC00F01FFD00F029F900F035FD4FF4F3
:1001B000E13000F05DFB0121084600F079F90121F2
:1001C000014800F091F810BD0002300000BFFEE7CA
:1001D00070472DE9F041024600250026002000234B
:1001E0000024002791F803C00CF00F0591F803C01C
:1001F0000CF0100CBCF1000F03D091F802C04CEAD7
:10020000050591F800C0BCF1000F31D01468002042
:100210002BE04FF0010C0CFA00F3B1F800C00CEA2F
:1002200003069E4220D183004FF00F0C0CFA03F717
:10023000BC4305FA03FC4CEA040491F803C0BCF18A
:10024000280F06D14FF0010C0CFA00FCC2F814C0C4
:100250000AE091F803C0BCF1480F05D14FF0010C42
:100260000CFA00FCC2F810C0401C0828D1D314605E
:10027000B1F800C0BCF1FF0F34DD546800202EE05F
:1002800000F1080C4FF0010808FA0CF3B1F800C0B7
:100290000CEA03069E4221D183004FF00F0C0CFAAA
:1002A00003F7BC4305FA03FC4CEA040491F803C0CD
:1002B000BCF1280F05D100F1080C08FA0CF8C2F8BF
:1002C000148091F803C0BCF1480F07D100F1080C6D
:1002D0004FF0010808FA0CF8C2F81080401C0828FA
:1002E000CED35460BDE8F081F0B50A460023002467
:1002F0000021002500F00046B6F1004F02D11D4E4E
:10030000F16901E01B4E7168C0F3034583B200F44C
:100310004016B6F5401F08D121F07061154E766881
:1003200026F07066134F7E6012E000F48016B6F57A
:10033000801F06D1032606FA05F4A14341F070613F
:1003400006E0460D360103FA06F6B14341F070614E
:1003500022B1460D360103FA06F6314300F000469D
:10036000B6F1004F02D1034EF16101E0014E716020
:10037000F0BD0000000001400246002093680B40E1
:100380000BB1012000E0002070474161704701611E
:10039000704700BFFEE7000010B5044600F022F8E9
:1003A00001280BD1601C0D490988B1EB400F0ADA16
:1003B0000A480088401C0949088004E000200749D9
:1003C00008800749088005480088022803D10120D9
:1003D0000349088010BD0020FCE700002E0000202B
:1003E0002C00002010B520210348FFF7C5FF08B9F5
:1003F000012010BD0020FCE7000C014008B50121E0
:10040000082000F055F82020ADF8000048208DF8B5
:10041000030069460148FFF7DCFE08BD000C0140FF
:1004200000BFFEE77047000070B5002100230F22D7
:10043000C47804B3154C246804F4E064C4F5E064A3
:10044000210AC1F10403CA40447804FA03F1847814
:100450001440214309010E4C0678A155047804F09C
:100460001F050124AC4005786D11AD0005F1E025B4
:10047000C5F8004109E0047804F01F050124AC40F0
:10048000044D0678761145F8264070BD0CED00E06D
:1004900000E400E080E100E002490143024A11600B
:1004A000704700000000FA050CED00E07047000006
:1004B00029B1064A92690243044B9A6104E0034A57
:1004C00092698243014B9A6170470000001002401C
:1004D00030B500210022002400232D4D6D6805F069
:1004E0000C0121B1042905D0082923D105E0294DAB
:1004F000056022E0274D05601FE0254D6D6805F47D
:100500007012234D6D6805F48034022505EB92428C
:100510001CB9214D554305600BE01D4D6D6805F478
:1005200000351DB11C4D5543056002E0194D554382
:10053000056002E0174D056000BF00BF144D6D68F7
:1005400005F0F0010909154D6B5C0568DD4045605B
:100550000F4D6D6805F4E061090A104D6B5C45684C
:10056000DD4085600A4D6D6805F46051C90A0B4D88
:100570006B5C4568DD40C560054D6D6805F4404124
:10058000890B074D6B5CC568B5FBF3F5056130BDA4
:100590000010024000127A0000093D001400002003
:1005A00024000020072853D2DFE800F0040F1B26A8
:1005B000313D480000212C4A116001212B4AC2F82C
:1005C0008411294A083211604CE00121264A116049
:1005D0000021264AC2F884110121234A0832116001
:1005E00040E00121204A1160204AC2F88411002114
:1005F0001D4A0832116035E000211B4A11601B4A78
:10060000C2F884110121184A083211602AE0002141
:10061000154A11600121154AC2F884110021124ABD
:10062000083211601EE001210F4A116000210F4ABB
:10063000C2F884110C4A0832116013E000210A4A02
:1006400011600A4AC2F88411074A0832116009E0B1
:100650000121054A1160054AC2F88411024A083294
:10066000116000BF00BF704780012242000022429B
:10067000704710B500F002F810BD00000CB5002066
:10068000019000903348006840F4803031490860A0
:1006900000BF3048006800F4003000900198401C12
:1006A0000190009818B90198B0F5A06FF1D12948D0
:1006B000006800F4003010B10120009001E000203B
:1006C00000900098012843D12348006840F01000B2
:1006D000214908600846006820F0030008600846C9
:1006E000006840F0020008601A48406819494860F4
:1006F0000846406848600846406840F480604860AA
:100700000846406820F47C1048600846406840F481
:10071000E81048600846006840F08070086000BF3C
:100720000C48006800F000700028F9D009484068C3
:1007300020F00300074948600846406840F0020086
:10074000486000BF0348406800F00C000828F9D159
:100750000CBD00000010024000200240042808D117
:100760004FF0E021096941F004014FF0E0221161EE
:1007700007E04FF0E021096921F004014FF0E02289
:10078000116170477047000010B51348006840F0D1
:1007900001001149086008464068104908400E49A8
:1007A0004860084600680E4908400B490860084642
:1007B000006820F4802008600846406820F4FE00AD
:1007C00048604FF41F008860FFF753FF4FF0006050
:1007D0000449086010BD0000001002400000FFF84E
:1007E000FFFFF6FE08ED00E010B540F22551064887
:1007F00000F0DEF830B1044800F096F9C4B22046AB
:1008000000F004F810BD00000050004010B5044690
:1008100000BF8021044800F0BEF80028F9D021462E
:10082000014800F086F910BD0050004010B50024CA
:1008300040F22551054800F0BBF830B1034800F004
:1008400073F9C4B2204600F003F810BD003801402F
:1008500010B5044600BF8021044800F09CF8002831
:10086000F9D02146014800F064F910BD003801407C
:1008700010B586B00446012144F20400FFF718FECB
:100880004FF40070ADF8140018208DF81700032005
:100890008DF8160005A92248FFF79BFC4FF48060F5
:1008A000ADF8140004208DF8170005A91C48FFF7C7
:1008B00090FC01940020ADF80800ADF80A00ADF8F6
:1008C0000C00ADF810000C20ADF80E0001A9154881
:1008D00000F0BEF8002240F22771124800F092F8B2
:1008E000012240F225510F4800F08CF840210D48BC
:1008F00000F03CF801210B4800F041F825208DF86C
:10090000000001208DF8010003208DF80200012075
:100910008DF803006846FFF787FD06B010BD0000A4
:10092000000801400038014010B540F2255106484A
:1009300000F03EF830B1044800F0F6F8C4B22046AA
:1009400000F004F810BD00000048004010B5044657
:1009500000BF8021044800F01EF80028F9D021468D
:10096000014800F0E6F810BD0048004001F40072B4
:10097000B2F5007F00D100BFCA430280704721B1A9
:10098000828942F40052828104E082894DF6FF732D
:100990001A408281704702460020B1F5007F00D1E5
:1009A00000BF13880B400BB1012000E0002070470E
:1009B00070B50246002400230025002040F66A1688
:1009C000B14200D100BFC1F3421501F01F0301265F
:1009D00006FA03F3012D02D19689334006E0022D79
:1009E00002D1168A334001E0968A33400C12012668
:1009F00006FA04F41688344013B10CB1012000E06B
:100A0000002070BDF0B5034600240026002500201C
:100A100040F66A17B94200D100BF1846C1F342142C
:100A200001F01F06012707FA06F5012C01D10C3051
:100A300004E0022C01D1103000E014301AB1076834
:100A40002F43076002E00768AF430760F0BD000076
:100A50002DE9F04786B005460E460024A24600BFA9
:100A6000A1460027B08900B100BF2F462C8A4CF662
:100A7000FF700440F08804432C82AC894EF6F310DA
:100A80000440B08831890843718908430443AC812C
:100A9000AC8A4FF6FF400440B0890443AC8201A801
:100AA000FFF716FD1F48874202D1DDF810A001E0D4
:100AB000DDF80CA0A88900F4004040B10AEBCA00A0
:100AC00000EB0A1031684900B0FBF1F807E00AEBCF
:100AD000CA0000EB0A1031688900B0FBF1F864200D
:100AE000B8FBF0F004012009642101FB1089A889FA
:100AF00000F4004040B1322000EBC900B0FBF1F03F
:100B000000F00700044308E0322000EB09106421E4
:100B1000B0FBF1F000F00F0004432C8106B0BDE8FB
:100B2000F08700000038014001468888C0F30800C3
:100B30007047C1F308028280704700BFFEE702E001
:100B400008C8121F08C1002AFAD170477047002058
:100B500001E001C1121F002AFBD1704710B50E48F9
:100B600000680E49B0FBF1F0C4B26FF00400FFF76B
:100B7000F5FDE11704EB5171C910094A11701046D7
:100B8000007800EB4001C1EBC0104FF6FF7101EAA5
:100B9000C0000449088010BD0000002040420F0042
:100BA000280000202A00002001460D4A12884A43EE
:100BB0004FF0E0235A6100229A6101221A6100BFBE
:100BC0004FF0E022106900F001021AB100F4803207
:100BD000002AF5D000224FF0E0231A619A61704795
:100BE0002A00002008B501210820FFF761FC102031
:100BF000ADF800008DF8030002208DF80200694670
:100C00000348FFF7E6FA10210248FFF7BEFB08BDD4
:100C100000100140000C014008B501211020FFF731
:100C200047FC0720ADF8000010208DF803000220DB
:100C30008DF8020069460448FFF7CBFA0721024805
:100C4000FFF7A5FB08BD000000100140FFF7A0FA68
:100C500017E00020FFF7A0FB38B10A48006808B988
:100C6000012000E0002007490860601CC4B2072C86
:100C700000DB00242046FFF795FC40F6B830FFF774
:100C800093FFE6E790812142A80C000800000020B5
:100C9000300000003E0B0008D80C00083000002097
:100CA000000400004E0B000800A24A0400000000EF
:100CB000000000000102030406070809000000000C
:100CC00001020304010203040607080902040608DE
:080CD00000000000000000001C
:0400000508000131BD
:00000001FF
