:020000040800F2
:100000003004002049010008E90B000897030008AC
:10001000E50B0008D1010008FF12000800000000F5
:10002000000000000000000000000000350E000885
:10003000D501000800000000710C0008490F0008FD
:100040006301000863010008630100086301000800
:1000500063010008630100086301000863010008F0
:1000600063010008630100086301000863010008E0
:1000700063010008630100086301000863010008D0
:1000800063010008630100086301000863010008C0
:1000900063010008630100086301000863010008B0
:1000A00063010008630100086301000863010008A0
:1000B0006301000863010008630100086301000890
:1000C0006301000863010008630100086301000880
:1000D00063010008F10F000863010008ED1000083B
:1000E0006301000863010008630100086301000860
:1000F0006301000863010008630100086301000850
:10010000630100086301000863010008630100083F
:1001100063010008AD0F00086301000863010008D7
:10012000630100086301000863010008630100081F
:10013000DFF810D000F01AF800480047111400084A
:10014000AFF300803004002006488047064800478F
:10015000FEE7FEE7FEE7FEE7FEE7FEE7FEE7FEE777
:10016000FEE7FEE74D0F000831010008064C074D81
:1001700006E0E06840F0010394E807009847103477
:10018000AC42F6D3FFF7D8FFF070000810710008FA
:1001900010B500F0DBFE4FF4A06000F05FFD01F051
:1001A000BFF801F001F900F02BF901F017F94FF455
:1001B000E13000F03FFF00F0D7F90121084600F0E0
:1001C00059FD0121014800F091F810BD00023000F6
:1001D00000BFFEE770472DE9F041024600250026EA
:1001E000002000230024002791F803C00CF00F0525
:1001F00091F803C00CF0100CBCF1000F03D091F883
:1002000002C04CEA050591F800C0BCF1000F31D0E6
:10021000146800202BE04FF0010C0CFA00F3B1F849
:1002200000C00CEA03069E4220D183004FF00F0C61
:100230000CFA03F7BC4305FA03FC4CEA040491F8FA
:1002400003C0BCF1280F06D14FF0010C0CFA00FCE2
:10025000C2F814C00AE091F803C0BCF1480F05D100
:100260004FF0010C0CFA00FCC2F810C0401C08282A
:10027000D1D31460B1F800C0BCF1FF0F34DD546875
:1002800000202EE000F1080C4FF0010808FA0CF3F2
:10029000B1F800C00CEA03069E4221D183004FF062
:1002A0000F0C0CFA03F7BC4305FA03FC4CEA0404F8
:1002B00091F803C0BCF1280F05D100F1080C08FA31
:1002C0000CF8C2F8148091F803C0BCF1480F07D1B4
:1002D00000F1080C4FF0010808FA0CF8C2F8108081
:1002E000401C0828CED35460BDE8F081F0B50A4622
:1002F000002300240021002500F00046B6F1004F45
:1003000002D11D4EF16901E01B4E7168C0F3034537
:1003100083B200F44016B6F5401F08D121F0706199
:10032000154E766826F07066134F7E6012E000F47A
:100330008016B6F5801F06D1032606FA05F4A14300
:1003400041F0706106E0460D360103FA06F6B1434E
:1003500041F0706122B1460D360103FA06F63143D1
:1003600000F00046B6F1004F02D1034EF16101E00A
:10037000014E7160F0BD0000000001400246002007
:1003800093680B400BB1012000E0002070474161F1
:1003900070470161704700BFFEE7000010B50446DA
:1003A00000F022F801280BD1601C0D490988B1EB3F
:1003B000400F0ADA0A480088401C0949088004E016
:1003C000002007490880074908800548008802285E
:1003D00003D101200349088010BD0020FCE7000084
:1003E0002E0000202C00002010B520210348FFF72C
:1003F000C5FF08B9012010BD0020FCE7000C01403A
:1004000008B50121082000F035FC2020ADF80000DF
:1004100048208DF8030069460148FFF7DCFE08BD5F
:10042000000C01402DE9F04104460D4616461F46DA
:100430002A2000F095FB611C88B200F081FB711C42
:1004400088B200F07DFB2B2000F08AFB05F11A0139
:1004500088B200F075FB07F11A0188B200F070FB5A
:100460002C2000F07DFBBDE8F08170B504460D4600
:1004700016462B46224629462046FFF7D3FF304634
:1004800000F05EFB70BD2DE9F04706460F461446AE
:100490001D46DDF820A0681E83B2601E82B2394678
:1004A0003046FFF7BFFFB8460EE0B14606E05046C3
:1004B00000F046FB09F101001FFA80F9A145F6DBC7
:1004C00008F101001FFA80F8A845EEDBBDE8F087CF
:1004D00008B50121082000F0CDFB4FF44070ADF8C5
:1004E000000010208DF8030003208DF802006946FB
:1004F0001A48FFF770FE4FF440711848FFF749FFA4
:100500000121102000F0B6FB4FF4E050ADF80000E0
:1005100010208DF8030003208DF802006946104872
:10052000FFF759FE4FF4E0510D48FFF732FF01216C
:10053000202000F09FFB0420ADF8000010208DF873
:10054000030003208DF8020069460648FFF743FECA
:1005500004210448FFF71DFF08BD0000000C014006
:10056000001001400014014008B5FFF7B1FF4FF43F
:1005700000619548FFF70BFF642000F0F7FE4FF491
:1005800000619148FFF705FF642000F0EFFE4FF493
:1005900080618D48FFF7FBFE642000F0E7FE11202C
:1005A00000F0DEFA782000F0E1FEB12000F0D8FA89
:1005B000052000F0CEFA3C2000F0CBFA3C2000F001
:1005C000C8FAB22000F0CCFA052000F0C2FA3C20B4
:1005D00000F0BFFA3C2000F0BCFAB32000F0C0FAF3
:1005E000052000F0B6FA3C2000F0B3FA3C2000F001
:1005F000B0FA052000F0ADFA3C2000F0AAFA3C2049
:1006000000F0A7FAB42000F0ABFA032000F0A1FA42
:10061000C02000F0A5FAAB2000F09BFA0B2000F000
:1006200098FA042000F095FAC12000F099FAC5204C
:1006300000F08FFAC22000F093FA0D2000F089FA42
:10064000002000F086FAC32000F08AFA8D2000F026
:1006500080FA6A2000F07DFAC42000F081FA8D2033
:1006600000F077FAEE2000F074FAC52000F078FA76
:100670000F2000F06EFAE02000F072FA072000F080
:1006800068FA0E2000F065FA082000F062FA0720F0
:1006900000F05FFA102000F05CFA072000F059FA31
:1006A000022000F056FA072000F053FA092000F06B
:1006B00050FA0F2000F04DFA252000F04AFA3620BB
:1006C00000F047FA002000F044FA082000F041FA58
:1006D000042000F03EFA102000F03BFAE12000F088
:1006E0003FFA0A2000F035FA0D2000F032FA082017
:1006F00000F02FFA072000F02CFA0F2000F029FA62
:10070000072000F026FA022000F023FA072000F06C
:1007100020FA092000F01DFA0F2000F01AFA252017
:1007200000F017FA352000F014FA002000F011FA5A
:10073000092000F00EFA042000F00BFA102000F05F
:1007400008FAFC2000F00CFA802000F002FA3A20AF
:1007500000F006FA052000F0FCF9362000F000FA5F
:10076000782000F0F6F9212000F0FAF9292000F0B5
:10077000F7F92A2000F0F4F9002000F0EAF91A2035
:1007800000F0E7F9002000F0E4F9692000F0E1F959
:100790002B2000F0E5F9002000F0DBF9012000F04B
:1007A000D8F9002000F0D5F9A02000F0D2F92C20D3
:1007B00000F0D6F94FF6FF705023A02200210090E0
:1007C0000846FFF760FE08BD001001402DE9FF5FFD
:1007D00080468A4617469B460F9D00200290CDF822
:1007E0000080284605EBD071C1F347042046E2178C
:1007F00004EB5272D2102146E31704EB5373DB1063
:10080000A4EBC3030BB1012300E000231A446A43A5
:1008100092B20192A7F12000C7B20AEB0500401E78
:1008200083B208EB0400401E82B251464046FFF7F7
:10083000F9FD002669E00C2D07D107EB470035498B
:1008400001EB8000805D03901BE0102D05D1324844
:1008500000EB0710805D039013E0182D07D107EB24
:1008600047002E4901EB0010805D039009E0202D28
:1008700005D12B4800EB8710805D039001E0BDE8B7
:10088000FF9F4FF000093AE01098C8B9012000FA24
:1008900009F00399084018B1584600F051F902E0F8
:1008A0000E9800F04DF90298401CC0B202900298D8
:1008B00090FBF4F104FB1100E8B90020029021E064
:1008C000012000FA09F00399084020B15A46514628
:1008D0004046FFF7CAFD08F101001FFA80F80098B2
:1008E000A8EB0000A04206D1DDF800800AF101006B
:1008F0001FFA80FA06E009F1010000F0FF09B9F1E2
:10090000080FC1DB00BF701C86B20198864292DBE3
:1009100000BFB4E7743C0008E8400008D84600086F
:10092000A85800082DE9FE4F05460F461446984684
:10093000DDE90D6ADDF830900CE043462246394689
:100940002846CDE9016ACDF8009000F009F8A41C12
:10095000A81985B220780028EFD1BDE8FE8F0000ED
:100960002DE9FF5F0646894692469B460F9C002074
:10097000039000962046E21704EB5272D2102146F3
:10098000E31704EB5373DB10A4EBC3030BB1012398
:1009900000E000231A44624392B2019204200290C4
:1009A000002571E005EB05103A4911F810009AF89E
:1009B0000010884265D105EB0510364901EB400077
:1009C00040789AF8011088425BD109EB0400401E80
:1009D00083B23019401E82B249463046FFF722FDED
:1009E00000274BE04FF0000842E01098F8B905EB03
:1009F0000510284901EB4000801CC05D012101FA6F
:100A000008F1084018B1584600F09AF802E00E9834
:100A100000F096F80398401CC0B20390039890FB36
:100A2000F4F104FB1100F8B90020039023E005EB7A
:100A30000510184901EB4000801CC05D012101FA3E
:100A400008F1084020B15A4649463046FFF70DFDEF
:100A5000701C86B20098301AA04205D1009E09F1A0
:100A600001001FFA80F906E008F1010000F0FF081C
:100A7000B8F1080FB9DB00BF781CC7B201988742F4
:100A8000B0DB00BF681C85B2029885428ADBBDE8F6
:100A9000FF9F0000687000082DE9F05F0746884658
:100AA00015461E46DDF82890002408EB0600401E7F
:100AB00083B27819401E82B241463846FFF7B2FC35
:100AC000A24618E04FF0000B0FE019F8140000F0F8
:100AD00040F8012101EB440119F8010000F039F858
:100AE000641C0BF101001FFA80FBB345EDDB0AF13A
:100AF00001001FFA80FAAA45E4DBBDE8F09F2DE96A
:100B0000FE4F06460F4614469846DDE90D5ADDF8BD
:100B1000309010E0CDE9015ACDF80090227843469C
:100B200039463046FFF752FE284605EBD07106EBFA
:100B300061018EB2641C20780028EBD1BDE8FE8FE5
:100B400010B50446201200F01DF8E0B200F01AF8CB
:100B500010BD10B50446204600F014F810BD00008A
:100B600010B504464FF480510548FFF710FC2046AD
:100B700000F008F84FF480510148FFF70AFC10BD5F
:100B80000010014070B5044604211448FFF7FFFB34
:100B900000251BE04FF480711148FFF7F8FB04F0CB
:100BA000800028B14FF400710D48FFF7F2FB04E01C
:100BB0004FF400710A48FFF7EAFB4FF480710848D0
:100BC000FFF7E7FB6006040E681CC5B2082DE1DBE9
:100BD00004210248FFF7DDFB70BD00000014014056
:100BE000000C014000BFFEE77047000070B5002117
:100BF00000230F22C47804B3154C246804F4E06485
:100C0000C4F5E064210AC1F10403CA40447804FA3F
:100C100003F184781440214309010E4C0678A15554
:100C2000047804F01F050124AC4005786D11AD0077
:100C300005F1E025C5F8004109E0047804F01F053E
:100C40000124AC40044D0678761145F8264070BD6D
:100C50000CED00E000E400E080E100E00249014327
:100C6000024A1160704700000000FA050CED00E038
:100C70007047000029B1064A92690243044B9A6109
:100C800004E0034A92698243014B9A617047000075
:100C90000010024030B500210022002400232D4D19
:100CA0006D6805F00C0121B1042905D0082923D174
:100CB00005E0294D056022E0274D05601FE0254D28
:100CC0006D6805F47012234D6D6805F480340225BB
:100CD00005EB92421CB9214D554305600BE01D4DBB
:100CE0006D6805F400351DB11C4D5543056002E0EB
:100CF000194D5543056002E0174D056000BF00BF68
:100D0000144D6D6805F0F0010909154D6B5C05681F
:100D1000DD4045600F4D6D6805F4E061090A104D36
:100D20006B5C4568DD4085600A4D6D6805F4605177
:100D3000C90A0B4D6B5C4568DD40C560054D6D68AB
:100D400005F44041890B074D6B5CC568B5FBF3F5B5
:100D5000056130BD0010024000127A0000093D001C
:100D60001400002024000020072853D2DFE800F000
:100D7000040F1B26313D480000212C4A116001213F
:100D80002B4AC2F88411294A083211604CE0012133
:100D9000264A11600021264AC2F884110121234A03
:100DA0000832116040E00121204A1160204AC2F857
:100DB000841100211D4A0832116035E000211B4AD0
:100DC00011601B4AC2F884110121184A08321160CF
:100DD0002AE00021154A11600121154AC2F8841148
:100DE0000021124A083211601EE001210F4A1160F1
:100DF00000210F4AC2F884110C4A0832116013E036
:100E000000210A4A11600A4AC2F88411074A0832CE
:100E1000116009E00121054A1160054AC2F88411F8
:100E2000024A0832116000BF00BF704780012242B1
:100E300000002242704710B500F002F810BD00001B
:100E40000CB50020019000903348006840F48030D9
:100E50003149086000BF3048006800F4003000905D
:100E60000198401C0190009818B90198B0F5A06F46
:100E7000F1D12948006800F4003010B10120009041
:100E800001E0002000900098012843D12348006829
:100E900040F01000214908600846006820F0030077
:100EA00008600846006840F0020008601A48406880
:100EB000194948600846406848600846406840F460
:100EC000806048600846406820F47C10486008460E
:100ED000406840F4E81048600846006840F08070C0
:100EE000086000BF0C48006800F000700028F9D0CE
:100EF0000948406820F003000749486008464068F8
:100F000040F00200486000BF0348406800F00C0059
:100F10000828F9D10CBD000000100240002002405A
:100F2000042808D14FF0E021096941F004014FF095
:100F3000E022116107E04FF0E021096921F004018E
:100F40004FF0E022116170477047000010B5134860
:100F5000006840F0010011490860084640681049E7
:100F600008400E494860084600680E4908400B4991
:100F700008600846006820F4802008600846406841
:100F800020F4FE0048604FF41F008860FFF753FF15
:100F90004FF000600449086010BD000000100240DE
:100FA0000000FFF8FFFFF6FE08ED00E010B540F28C
:100FB0002551064800F0DEF830B1044800F096F9FB
:100FC000C4B2204600F004F810BD000000500040FC
:100FD00010B5044600BF8021044800F0BEF8002888
:100FE000F9D02146014800F086F910BD00500040BC
:100FF00010B5002440F22551054800F0BBF830B18F
:10100000034800F073F9C4B2204600F003F810BDA5
:101010000038014010B5044600BF8021044800F0AC
:101020009CF80028F9D02146014800F064F910BD71
:101030000038014010B586B00446012144F2040096
:10104000FFF718FE4FF40070ADF8140018208DF86B
:10105000170003208DF8160005A92248FFF7BBF8FA
:101060004FF48060ADF8140004208DF8170005A936
:101070001C48FFF7B0F801940020ADF80800ADF867
:101080000A00ADF80C00ADF810000C20ADF80E0011
:1010900001A9154800F0BEF8002240F2277112485D
:1010A00000F092F8012240F225510F4800F08CF830
:1010B00040210D4800F03CF801210B4800F041F8B8
:1010C00025208DF8000001208DF8010003208DF807
:1010D000020001208DF803006846FFF787FD06B087
:1010E00010BD0000000801400038014010B540F27A
:1010F0002551064800F03EF830B1044800F0F6F8FB
:10110000C4B2204600F004F810BD000000480040C2
:1011100010B5044600BF8021044800F01EF80028E6
:10112000F9D02146014800F0E6F810BD0048004023
:1011300001F40072B2F5007F00D100BFCA43028003
:10114000704721B1828942F40052828104E0828991
:101150004DF6FF731A408281704702460020B1F5B8
:10116000007F00D100BF13880B400BB1012000E0CD
:101170000020704770B5024600240023002500209F
:1011800040F66A16B14200D100BFC1F3421501F02A
:101190001F03012606FA03F3012D02D1968933407D
:1011A00006E0022D02D1168A334001E0968A3340D0
:1011B0000C12012606FA04F41688344013B10CB15F
:1011C000012000E0002070BDF0B503460024002699
:1011D0000025002040F66A17B94200D100BF18462A
:1011E000C1F3421401F01F06012707FA06F5012C8E
:1011F00001D10C3004E0022C01D1103000E0143099
:101200001AB107682F43076002E00768AF43076021
:10121000F0BD00002DE9F04786B005460E460024DB
:10122000A24600BFA1460027B08900B100BF2F46EB
:101230002C8A4CF6FF700440F08804432C82AC8961
:101240004EF6F3100440B088318908437189084391
:101250000443AC81AC8A4FF6FF400440B08904439C
:10126000AC8201A8FFF716FD1F48874202D1DDF8C6
:1012700010A001E0DDF80CA0A88900F4004040B106
:101280000AEBCA0000EB0A1031684900B0FBF1F824
:1012900007E00AEBCA0000EB0A1031688900B0FBD6
:1012A000F1F86420B8FBF0F004012009642101FB8F
:1012B0001089A88900F4004040B1322000EBC90039
:1012C000B0FBF1F000F00700044308E0322000EB2F
:1012D00009106421B0FBF1F000F00F0004432C81F1
:1012E00006B0BDE8F087000000380140014688885C
:1012F000C0F308007047C1F308028280704700BF46
:10130000FEE702E008C8121F08C1002AFAD17047A0
:101310007047002001E001C1121F002AFBD1704775
:1013200010B50E4800680E49B0FBF1F0C4B26FF082
:101330000400FFF7F5FDE11704EB5171C910094AEC
:1013400011701046007800EB4001C1EBC0104FF661
:10135000FF7101EAC0000449088010BD00000020B0
:1013600040420F00280000202A00002001460D4ABC
:1013700012884A434FF0E0235A6100229A61012209
:101380001A6100BF4FF0E022106900F001021AB1AB
:1013900000F48032002AF5D000224FF0E0231A61D9
:1013A0009A6170472A00002008B501210820FFF744
:1013B00061FC1020ADF800008DF8030002208DF8CC
:1013C000020069460348FEF706FF10210248FEF7B7
:1013D000DEFF08BD00100140000C014008B50121EE
:1013E0001020FFF747FC0720ADF8000010208DF813
:1013F000030002208DF8020069460448FEF7EBFE68
:1014000007210248FEF7C5FF08BD0000001001409B
:101410000EB5FEF7BDFE4FF6FF705023A02200214F
:1014200000900846FFF72FF81D481D2378222D2134
:1014300000901420FFF730FB002010214FF6FF72C0
:101440000346CDE90021029016A201460A20FFF7CB
:1014500056FB002010214FF6FF721F23CDE900211B
:10146000029014A214213220FFF75CFA17E000204A
:10147000FEF794FF38B11248006808B9012000E077
:1014800000200F490860601CC4B2072C00DB002458
:101490002046FFF769FC40F6B830FFF767FFE6E744
:1014A000C414000848656C6C6F20576F726C64211F
:1014B00000000000D1C7B2A9D6C7C4DC00000000FC
:1014C00090812142FFFFFFFFFFFFFFFFFFFFFFFFB4
:1014D000FFFFFFFFFFFFFFFFFFFFFFFFFFFFFFFF1C
:1014E000FFFFFFFFFFFFFFFFFFFFFFFFFFFFFFFF0C
:1014F000FFFFFFFFFFFFFFFFFFFFFFFFFFFFFFFFFC
:10150000FFFFFFFFFFFFFFFFFFFFFFFFFFFFFFFFEB
:10192000FFFFFFFF5F3C773CFFFFFFFFFFFFFFFF75
:10193000FFFFFFFFFFFFFFFFFFFFFFFFFFFFFFFFB7
:10194000FFFFFFFFFFFFFFFFFFFFFFFFFFFFFFFFA7
:10195000FFFFFFFFFFFFFFFFFFFFFFFFFFFFFFFF97
:10196000FFFFFFFFFFFFFFFFFFFFFFFFFFFFFFFF87
:10197000FFFFFFFFFFFFFFFFFFFFFFFFFFFFFFFF77
:10198000FFFFFFFFFFFFFFFFFFFFFFFFFFFFFFFF67
:10199000FFFFFFFFFFFFFFFFFFFFFFFFFFFFFFFF57
:1019A000FFFFFFFFFFFFFFFFFFFFFFFFFFFFFFFF47
:1019B000FFFFFFFFFFFFFFFFFFFFFFFFFFFFFFFF37
:1019C000FFFFFFFFFFFFFFFFFFFFFFFFFFFFFFFF27
:1019D000FFFFFFFFFFFFFFFFFFFFFFFFFFFFFFFF17
:1019E000FFFFFFFFFFFFFFFFFFFFFFFFFFFFFFFF07
:1019F000FFFFFFFFFFFFFFFFFFFFFFFFFFFFFFFFF7
:101A0000FFFFFFFFFFFFFFFFFFFFFFFFFFFFFFFFE6
:101A1000FFFFFFFF8EFBAF1CFFFFFFFFFFFFFFFF7E
:101A2000FFFFFFFFFFFFFFFFFFFFFFFFFFFFFFFFC6
:101A3000FFFFFFFFFFFFFFFFFFFFFFFFFFFFFFFFB6
:101A4000FFFFFFFFFFFFFFFFFFFFFFFFFFFFFFFFA6
:101A5000FFFFFFFFFFFFFFFFFFFFFFFFFFFFFFFF96
:101A6000FFFFFFFFFFFFFFFFFFFFFFFFFFFFFFFF86
:101A7000FFFFFFFFFFFFFFFFFFFFFFFFFFFFFFFF76
:101A8000FFFFFFFFFFFFFFFFFFFFFFFFFFFFFFFF66
:101A9000FFFFFFFFFFFFFFFFFFFFFFFFFFFFFFFF56
:101AA000FFFFFFFFFFFFFFFFFFFFFFFFFFFFFFFF46
:101AB000FFFFFFFFFFFFFFFFFFFFFFFFFFFFFFFF36
:101AC000FFFFFFFFFFFFFFFFFFFFFFFFFFFFFFFF26
:101AD000FFFFFFFFFFFFFFFFFFFFFFFFFFFFFFFF16
:101AE000FFFFFFFFFFFFFFFFFFFFFFFFFFFFFFFF06
:101AF000FFFFFFFFFFFFFFFFFFFFFFFFFFFFFFFFF6
:101B0000FFFFFFFFD69AE71CFFFFFFFFFFFFFFFF6E
:101B1000FFFFFFFFFFFFFFFFFFFFFFFFFFFFFFFFD5
:101B2000FFFFFFFFFFFFFFFFFFFFFFFFFFFFFFFFC5
:101B3000FFFFFFFFFFFFFFFFFFFFFFFFFFFFFFFFB5
:101B4000FFFFFFFFFFFFFFFFFFFFFFFFFFFFFFFFA5
:101B5000FFFFFFFFFFFFFFFFFFFFFFFFFFFFFFFF95
:101B6000FFFFFFFFFFFFFFFFFFFFFFFFFFFFFFFF85
:101B7000FFFFFFFFFFFFFFFFFFFFFFFFFFFFFFFF75
:101B8000FFFFFFFFFFFFFFFFFFFFFFFFFFFFFFFF65
:101B9000FFFFFFFFFFFFFFFFFFFFFFFFFFFFFFFF55
:101BA000FFFFFFFFFFFFFFFFFFFFFFFFFFFFFFFF45
:101BB000FFFFFFFFFFFFFFFFFFFFFFFFFFFFFFFF35
:101BC000FFFFFFFFFFFFFFFFFFFFFFFFFFFFFFFF25
:101BD000FFFFFFFFFFFFFFFFFFFFFFFFFFFFFFFF15
:101BE000FFFFFFFFFFFFFFFFFFFFFFFFF79EF79ED7
:101BF000F79EF79EAEBACF1CF79EF79EF79EF79E14
:101C0000FFDFFFFFFFFFFFFFFFFFFFFFFFFFFFFF04
:101C1000FFFFFFFFFFFFFFFFFFFFFFFFFFFFFFFFD4
:101C2000FFFFFFFFFFFFFFFFFFFFFFFFFFFFFFFFC4
:101C3000FFFFFFFFFFFFFFFFFFFFFFFFFFFFFFFFB4
:101C4000FFFFFFFFFFFFFFFFFFFFFFFFFFFFFFFFA4
:101C5000FFFFFFFFFFFFFFFFFFFFFFFFFFFFFFFF94
:101C6000FFFFFFFFFFFFFFFFFFFFFFFFFFFFFFFF84
:101C7000FFFFFFFFFFFFFFFFFFFFFFFFFFFFFFFF74
:101C8000FFFFFFFFFFFFFFFFFFFFFFFFFFFFFFFF64
:101C9000FFFFFFFFFFFFFFFFFFFFFFFFFFFFFFFF54
:101CA000FFFFFFFFFFFFFFFFFFFFFFFFFFFFFFFF44
:101CB000FFFFFFFFFFFFFFFFFFFFFFFFFFFFFFFF34
:101CC000FFFFFFFFFFFFFFFFFFFFFFFFFFFFFFFF24
:101CD000FFFFFFFFFFFFF7FFBE183F5D07FF07FF96
:101CE00007FF07FF07FF07FF07FF07FF07FF07FFC4
:101CF00007FF571CCE9AFFFFFFFFFFFFFFFFFFFF0D
:101D0000FFFFFFFFFFFFFFFFFFFFFFFFFFFFFFFFE3
:101D1000FFFFFFFFFFFFFFFFFFFFFFFFFFFFFFFFD3
:101D2000FFFFFFFFFFFFFFFFFFFFFFFFFFFFFFFFC3
:101D3000FFFFFFFFFFFFFFFFFFFFFFFFFFFFFFFFB3
:101D4000FFFFFFFFFFFFFFFFFFFFFFFFFFFFFFFFA3
:101D5000FFFFFFFFFFFFFFFFFFFFFFFFFFFFFFFF93
:101D6000FFFFFFFFFFFFFFFFFFFFFFFFFFFFFFFF83
:101D7000FFFFFFFFFFFFFFFFFFFFFFFFFFFFFFFF73
:101D8000FFFFFFFFFFFFFFFFFFFFFFFFFFFFFFFF63
:101D9000FFFFFFFFFFFFFFFFFFFFFFFFFFFFFFFF53
:101DA000FFFFFFFFFFFFFFFFFFFFFFFFFFFFFFFF43
:101DB000FFFFFFFFFFFFE73CDEDBFFFFFFFFFFFF53
:101DC000FFFFCE5927FF07FF07FF07FF07FF07FFAA
:101DD00007FF07FF07FF07FF07FF07FF07FF07FFD3
:101DE00007FF07FF07FF1FBEBE79F79EFFFFFFFF3C
:101DF000FFFFFFFFCE59FFFFFFFFFFFFFFFFFFFFCA
:101E0000FFFFFFFFFFFFFFFFFFFFFFFFFFFFFFFFE2
:101E1000FFFFFFFFFFFFFFFFFFFFFFFFFFFFFFFFD2
:101E2000FFFFFFFFFFFFFFFFFFFFFFFFFFFFFFFFC2
:101E3000FFFFFFFFFFFFFFFFFFFFFFFFFFFFFFFFB2
:101E4000FFFFFFFFFFFFFFFFFFFFFFFFFFFFFFFFA2
:101E5000FFFFFFFFFFFFFFFFFFFFFFFFFFFFFFFF92
:101E6000FFFFFFFFFFFFFFFFFFFFFFFFFFFFFFFF82
:101E7000FFFFFFFFFFFFFFFFFFFFFFFFFFFFFFFF72
:101E8000FFFFFFFFFFFFFFFFFFFFFFFFFFFFFFFF62
:101E9000FFFFFFFFFFFFFFFFFFFFFFFFFFFFFFFF52
:101EA000FFFFFFFFFFFF66FB3F5DFFFFFFFFDEFB66
:101EB0001FBE07FF07FF07FF07FF07FF07FF07FF1B
:101EC00007FF07FF07FF07FF07FF07FF07FF07FFE2
:101ED00007FF07FF07FF07FF07FF07FF47BEE71CD6
:101EE000FFFFC61807FFFFFFFFFFFFFFFFFFFFFF1A
:101EF000FFFFFFFFFFFFFFFFFFFFFFFFFFFFFFFFF2
:101F0000FFFFFFFFFFFFFFFFFFFFFFFFFFFFFFFFE1
:101F1000FFFFFFFFFFFFFFFFFFFFFFFFFFFFEF7D63
:101F2000EF5DFFFFFFFFFFFFFFFFFFFFFFFFFFFF73
:101F3000FFFFFFFFFFFFFFFFD71C7FFFFFFFFFFF3C
:101F4000FFFFFFFFFFFF8FDFB6FBFFFFFFFFFFFF7E
:101F5000FFFFFFFFFFFFF79E7FFFDEFBFFFFFFFF9F
:101F6000FFFFFFFFFFFFFFFFFFFFFFFFFFFFFFFF81
:101F7000DEFBCF3CFFFFF79EDEFBDEFBDEFBDEFB86
:101F8000DEFBDEFBDEFBDEFBDEFBDEFBDEFBE73C3F
:101F9000FFFFFFFFFFFFB77DD69AFFDF671C07FF3C
:101FA00007FF07FF07FF07FF07FF07FF07FF07FF01
:101FB00007FF07FF07FF07FF07FF07FF07FF07FFF1
:101FC00007FF07FF07FF07FF07FF07FF07FF27BE02
:101FD000E73CE71CCF1CFFFFFFFFDEFBFFFFFFFF1F
:101FE000FFFFFFFFFFFFFFFFFFFFFFFFFFFFFFFF01
:101FF000FFFFFFFFE71CF7BEFFFFFFFFFFFFFFFF35
:10200000FFFFFFFFFFFFFFFFFFFFFFFFFFFF07FFD8
:10201000279EEF7DFFFFFFFFFFFFFFFFFFFFFFFF9B
:10202000FFFFFFFFFFFFCF1C07FF07FFF7BEFFFF0C
:10203000FFFFFFFFE75D07FF07FFAEFBFFFFFFFFAF
:10204000FFFFFFFFFFFFEF5D07FFBE18FFFFFFFF72
:10205000FFFFFFFFFFFFFFFFFFFFFFFFFFFFF7BED9
:1020600007FF07FFFFFF6EDB07FF07FF07FF07FF05
:1020700007FF07FF07FF07FF07FF07FF07FF07FF30
:1020800086BAFFFFFFFFE71CCE796EDB07FF07FF75
:1020900007FF07FF07FF07FF07FF07FF07FF07FF10
:1020A00007FF07FF07FF07FF07FF07FF07FF07FF00
:1020B00007FF07FF07FF07FF07FF07FF07FF07FFF0
:1020C00017DFEF5DF79EFFFFE71C07FF86BAFFFFF4
:1020D000FFFFFFFFFFFFFFFFFFFFFFFFFFFFFFFF10
:1020E000FFFFE75D17DFB7FFFFFFFFFFFFFFFFFF0A
:1020F000FFFFFFFFFFFFFFFFFFFFFFFFFFFF97DF78
:1021000007FF17DFD7FFFFFFFFFFFFFFFFFFFFFF07
:10211000FFFFFFFFCF1C07FF07FFEFFFFFFFFFFFE2
:10212000FFFFE77D07FF1FBE0FDF07FFF7BEFFFFC3
:10213000FFFFFFFFFFFFEF5D07FFBE18FFFFFFFF81
:10214000FFFFFFFFFFFFFFFFFFFFFFFFFFFFF7BEE8
:1021500007FF07FFFFFFEF5D2FFF2FFF2FFF2FFF71
:102160002FFF2FFF2FFF2FFF2FFF2FFF2FFF1FBE50
:1021700007FFA659FFFFE71C6EDB07FF1FBEA6BACD
:10218000CE59CE59CE59CE59CE59CE59CE599EBAE6
:1021900007FF07FF07FF07FF07FF07FF2FFFCE59C6
:1021A000CE59CE59CE59CE59CE59CE59CE591FFF00
:1021B00007FF07FFC7BEFFFFE71C07FF07FF8E9A59
:1021C000FFFFFFFFFFFFFFFFFFFFFFFFFFFFFFFF1F
:1021D000DF5D07FF07FFB7FFFFFFFFFFFFFFFFFF09
:1021E000FFFFFFFFFFFFFFFFFFFFFFFFFFFFFFFFFF
:1021F000869A07FF07FF9679E73CFFFFFFFFFFFF87
:10220000FFFF475D07FF07FFC638FFFFFFFFFFFF28
:10221000E73C07FF07FFD7FFD6BA07FF377DFFFF71
:10222000FFFFFFFFFFFFEF5D07FFBE18FFFFFFFF90
:10223000FFFFFFFFFFFFFFFFFFFFFFFFFFFFF7BEF7
:1022400007FF07FFFFFFFFFFFFFFFFFFFFFFFFFF8E
:10225000FFFFFFFFFFFFFFFFFFFFFFFFFFFFC7FFC6
:1022600007FFA659FFFF66FB07FF1FBEFFDFFFFF4B
:10227000FFFFFFFF9E79C618FFFFFFFFFFFFFFFF75
:10228000AE3807FF07FF07FF07FF37FFFFFFFFFF1E
:10229000FFFFFFFF8E9AC638FFFFFFFFFFFFEF5DD6
:1022A00007FF07FF9E79FFFFE71C07FF07FF07FFF8
:1022B0008E9AFFFFFFFFFFFFFFFFFFFFFFFFE73CDF
:1022C00007FF07FF07FFB7FFFFFFFFFFFFFFFFFF4E
:1022D000FFFFFFFFFFFFFFFFFFFFFFFFFFFFFFFF0E
:1022E000FFFFEF7D0FFF07FF07FF27BE27BE27BEBB
:1022F00007FF07FF4F3CF7BEFFFFFFFFFFFFFFFF9A
:102300007EFB07FFA659FFFFFFFF6EFB07FF379E0F
:10231000FFDFFFFFFFFFEF5D07FF07FF07FF07FF7F
:1023200007FF07FF07FF07FF07FF07FF07FF07FF7D
:1023300007FF07FFFFFF86FB07FF07FF07FF07FFFA
:1023400007FF07FF07FF07FF07FF07FF07FF07FF5D
:1023500007FFD7BEDEFB07FF07FF1FBEFFDFFFFF44
:10236000FFFFEF5D07FF07FFDFFFFFFFFFFFFFFF3F
:10237000E7FF07FF07FF07FF07FFCE79FFFFFFFF1C
:10238000FFFFE71C07FF17DFFFDFFFFFFFFFFFFF78
:102390009E5907FF07FFAFDFE71C07FF17FF1FFF6F
:1023A00007FF7EFBFFFFFFFFFFFFFFFFDEFB17DFE7
:1023B00007FFA6591FBEB7FFFFFFFFFFFFFFFFFF8D
:1023C000FFFFFFFFFFFFFFFFFFFFFFFFFFFFFFFF1D
:1023D000FFFFFFFFEF5DB7DF7EBA07FF07FF07FFD5
:1023E0007EBAD79EF7BEFFFFFFFFFFFFFFFF871CF0
:1023F00007FF2FDFFFFFFFFFFFFFF7BE5F1C07FF99
:10240000C6DBFFFFFFFFEF5D07FF07FF7EBA7EBA67
:102410007EBA7EBA7EBA7EBA7EBA7EBA7EBA7EBAFC
:1024200007FF07FFFFFF6EDB07FF7EBA7EBA7EBAAB
:102430007EBA7EBA7EBA7EBA7EBA7EBA7EBA66FBB3
:1024400007FFC6DBD6BA07FF07FF1FBEFFDFFFFF90
:10245000FFFFE73C07FF07FFD7FFFFFFFFFFFFFF7F
:10246000E7FF07FF8E9A67BE07FFCE79FFFFFFFFEA
:10247000FFFFE71C07FF17DFFFDFFFFFFFFFFFFF87
:102480009E5907FF07FF9FFFE71C07FF17FFFFFF8E
:102490008F1C07FF771CFFFFFFFFDEFB1FBE07FF40
:1024A0009EDBFFDF1FBEB7FFFFFFFFFFFFFFFFFF4A
:1024B000FFFFFFFFFFFFFFFFFFFFFFFFFFFFFFFF2C
:1024C000FFFFFFFFFFFFFFFFFFFF9FFF07FFC61894
:1024D000FFFFFFFFFFFFFFFFFFFFFFFFEF5D07FFB6
:1024E00027BEE73CFFFFFFFFFFFFFFFFF7BE07FF31
:1024F00007FFBF1CFFFFEF5D07FFBE18FFFFFFFFD9
:10250000FFFFFFFFFFFFFFFFFFFFFFFFFFFFF7BE24
:1025100007FF07FFFFFF6EDB07FFFFFFFFFFFFFF68
:10252000FFFFFFFFFFFFFFFFFFFFFFFFFFFFDFDFFB
:1025300007FFA659FFFF2F7D07FF0FDFDF1CFFFFFF
:10254000FFFFFFFF77DF671CFFDFFFFFFFFFFFFFDE
:102550005F1C07FFA73CDEFB07FF7EFBFFFFFFFFC3
:10256000FFFFF79E5F1CC638FFFFFFFFFFFFF7BEB0
:1025700007FF07FF07FFE73CE71C07FF17FFFFFF09
:10258000FFFF3FFF07FF76FBE71C17DF07FF971CE6
:10259000FFFFFFDF1FBEB7FFFFFFFFFFFFFFFFFFD4
:1025A000FFFFFFFFFFFFFFFFFFFFFFFFFFFFFFFF3B
:1025B000FFFFFFFFFFFFFFFFFFFF9FFF07FFC618A3
:1025C000FFFFFFFFFFFFFFFFFFFFEF7D27BE07FFBE
:1025D000E73CFFFFFFFFFFFFFFFFFFFFFFFFC6BA64
:1025E00007FF07FFF7BEEF5D07FFBE18FFFFFFFF06
:1025F000FFFFFFFFFFFFFFFFFFFFFFFFFFFFF7BE34
:1026000007FF07FFFFFF7F3C07FF869A869A869A9F
:10261000869A869A869A869A869A869A869A66FB79
:1026200007FFB6DBFFFFFFFFA6DB07FF07FF869A6A
:10263000869A869A869A869A869A869A869A5F1C3F
:1026400007FF377DF7BEFFFF37FF07FF869A869AA1
:10265000869A869A869A869A869A869A869A07FF94
:102660000FFFD6BAFFFFFFFFE71C07FF17FFFFFFB3
:10267000FFFFFFFF279E07FF07FF07FF9EFBFFFFF0
:10268000FFFFFFDF1FBEB7FFFFFFFFFFFFFFFFFFE3
:10269000FFFFFFFFFFFFFFFFFFFFFFFFFFFFFFFF4A
:1026A000FFFFFFFFFFFFFFFFFFFFA7FF07FFCE5961
:1026B000FFFFFFFFFFFFFFFFFFFFC63807FF9FDFA2
:1026C000FFFFFFFFFFFFFFFFFFFFFFFFFFFFFFFF1A
:1026D000CE7907FF97DFEF5D07FFBE18FFFFFFFF13
:1026E000FFFFFFFFFFFFFFFFFFFFFFFFFFFFF7BE43
:1026F0001FBE17DFFFFFEF5D1FBE07FF07FF07FFCE
:1027000007FF07FF07FF07FF07FF07FF07FF07FF99
:102710002FFFF7BEFFFFFFFFFFFFB6791FBE07FFCA
:1027200007FF07FF07FF07FF07FF07FF07FF0FFF71
:102730002F9EFFDFFFFFFFFFEF5DA69A1FBE07FF83
:1027400007FF07FF07FF07FF07FF07FF07FF1FBE82
:10275000D69AFFFFFFFFFFFFE73C07FFC638FFFFEA
:10276000FFFFFFFFEF7D1FFF07FFA69AFFFFFFFFA1
:10277000FFFFFFFF1FDFB7FFFFFFFFFFFFFFFFFFB1
:10278000FFFFFFFFFFFFFFFFFFFFFFFFFFFFFFFF59
:10279000FFFFFFFFFFFFFFFFFFFFFFFFF7FFFFFF51
:1027A000FFFFFFFFFFFFFFFFFFFFFFFFF7FFFFFF41
:1027B000FFFFFFFFFFFFFFFFFFFFFFFFFFFFFFFF29
:1027C000FFFFFFFFFFFFFFFFF7FFFFFFFFFFFFFF21
:1027D000FFFFFFFFFFFFFFFFFFFFFFFFFFFFFFFF09
:1027E000FFFFFFFFFFFFFFFFFFFFF7FFF7FFF7FF11
:1027F000F7FFF7FFF7FFF7FFF7FFF7FFF7FFFFFF21
:10280000FFFFFFFFFFFFFFFFFFFFFFFFFFFFF7FFE0
:10281000F7FFF7FFF7FFF7FFF7FFF7FFF7FFFFFF00
:10282000FFFFFFFFFFFFFFFFFFFFFFFFFFFFF7FFC0
:10283000F7FFF7FFF7FFF7FFF7FFF7FFF7FFFFFFE0
:10284000FFFFFFFFFFFFFFFFFFFFF7FFFFFFFFFFA0
:10285000FFFFFFFFFFFFFFFFF7FFFFFFFFFFFFFF90
:10286000FFFFFFFFF7FFFFFFFFFFFFFFFFFFFFFF80
:10287000FFFFFFFFFFFFFFFFFFFFFFFFFFFFFFFF68
:10288000FFFFFFFFFFFFFFFFFFFFFFFFFFFFFFFF58
:10289000FFFFFFFFFFFFFFFFFFFFFFFFFFFFFFFF48
:1028A000FFFFFFFFFFFFFFFFFFFFFFFFFFFFFFFF38
:10329000FFFFFFFFFFFFFFFFFFDFAE18AE18FFDFEE
:1032A000FFFFFFFFFFFFFFFFFFFFFFFFFFFFFFFF2E
:1032B000FFFFFFFFFFFFFFFFFFFFFFFFFFFFFFFF1E
:1032C000FFFFFFFFFFFFFFFFFFFFFFFFFFFFFFFF0E
:1032D000FFFFFFFFFFFFFFFFFFFFFFFFFFFFFFFFFE
:1032E000FFFFFFFFFFFFFFFFEF7D36BA3F1CFFDF51
:1032F000FFFFFFFFFFFFFFFFFFFFFFFFFFFFFFFFDE
:10330000FFFFFFFFFFFFFFFFFFFFFFFFFFFFFFFFCD
:10331000FFFFFFFFFFFFFFFFFFFFFFFFFFFFFFFFBD
:10332000FFFFFFFFFFFFFFFFFFFFFFFFFFFFFFFFAD
:10333000FFFFFFFFFFFFFFFFFFFFD69AD69AFFFFB9
:10334000FFFFFFFFFFFFFFFFFFFFFFFFFFFFFFFF8D
:10335000FFFFFFFFFFFFFFFFFFFFFFFFFFFFFFFF7D
:10336000FFFFFFFFFFFFFFFFFFFFFFFFFFFFFFFF6D
:10337000FFFFFFFFFFFFFFFFFFFFFFFFFFFFFFFF5D
:10338000FFFFFFFFFFFFFFFFFFFFD69AD69AFFFF69
:10339000FFFFFFFFFFFFFFFFFFFFFFFFFFFFFFFF3D
:1033A000FFFFFFFFFFFFFFFFFFFFFFFFFFFFFFFF2D
:1033B000FFFFFFFFFFFFFFFFFFFFFFFFFFFFFFFF1D
:1033C000FFFFFFFFFFFFFFFFFFFFFFFFFFFFFFFF0D
:1033D000EF7DEF7DEF7DEF7DBFFF9EFB9EFBBFFF8F
:1033E000EF7DEF7DEF7DEF7DF79EFFFFFFFFFFFF9E
:1033F000FFFFFFFFFFFFFFFFFFFFFFFFFFFFFFFFDD
:10340000FFFFFFFFFFFFFFFFFFFFFFFFFFFFFFFFCC
:10341000FFFFFFFFFFFFFFFFFFFFDEFBD69A679E68
:1034200036BA3492377D377D07FF07FF07FF07FF66
:10343000377D377D34923492379EAEFBDEFBFFFF43
:10344000FFFFFFFFFFFFFFFFFFFFFFFFFFFFFFFF8C
:10345000FFFFFFFFFFFFFFFFEF7DFFDFFFFFFFFF2E
:10346000FFFFFFFFE79E9EFB6EFB07FF073C073C4D
:1034700007FF07FF07FF07FF07FF07FF07FF07FF1C
:1034800007FF07FF07FF07FF073C073C07FF07FF92
:103490009E38E79EF79EFFFFFFFFFFFFFFDFEF7DF8
:1034A000F79EFFFFFFFFDEFB3555CFDFFFFFFFFF7E
:1034B000F79E679E257507FF07FF07FF07FF07FFBA
:1034C00007FF07FF07FF07FF07FF07FF07FF07FFCC
:1034D00007FF07FF07FF07FF07FF07FF07FF07FFBC
:1034E000073C25755F3CF79EFFFFFFFFCFDF35559B
:1034F000679EFFFFFFFFDEFB0DB6CFDFFFDFCFDFF5
:103500006EFB07FF07FF07FF07FF07FF07FF07FF28
:1035100007FF07FF07FF07FF07FF07FF07FF07FF7B
:1035200007FF07FF07FF07FF07FF07FF07FF07FF6B
:1035300007FF07FF07FF07FFAE18FFDFCFDF0DB65E
:10354000DEFBFFFFFFFFFFFF85B6FFDFAEDB0FDF18
:1035500007FF07FF07FF07FF07FF07FF07FF07FF3B
:1035600007FF07FF07FF07FF07FF07FF07FF07FF2B
:1035700007FF07FF07FF07FF07FF07FF07FF07FF1B
:1035800007FF07FF07FF07FF0E593F1CFFDFAEDBFA
:10359000FFFFFFFFFFFFFFFFCE79CFDF073C07FFF5
:1035A00007FF05D707FF05D7377D0FDF073C073C2F
:1035B00007FF07FF073C07FF07FF07FF07FF07FF9E
:1035C00007FF07FF07FF05D707FF07FF279E07FF36
:1035D0000514073C05D707FF073C05D7969AB63870
:1035E000FFFFFFFFFFFFFFFF9E790FDF073C6EFB32
:1035F000BFFFBFFFBFFFBFFFEF7DCFDFBFFFBFFF3D
:10360000BFFFBFFF6D75073C07FF07FF07FF07FF01
:1036100007FF6EFBBFFFBFFFBFFFBFFFE79EBFFF00
:10362000BFFFBFFFBFFFBFFF6E3807FF073C26DBB2
:10363000FFFFFFFFFFFFAEFB07FF07FF379EF79E71
:10364000FFFFFFFFFFFFF79E9596D6FBFFFFFFFFF3
:10365000FFFFFFFFF79E357507FF07FF07FF07FF17
:10366000377DEF7DFFFFFFFFFFFFFFFFB75D96593F
:10367000FFFFFFFFFFFFFFFFF79E379E07FF07FFDC
:10368000AEFBFFFFF79E357507FF07FF47FFFFFF04
:10369000FFFFFFFFFFFF679E06FB275DFFFFFFFFAA
:1036A000FFFFFFFFFFFF47FF05D707FF07FF07FFEC
:1036B0003FDFFFDFFFFFFFFFFFFFDEFB06FB06FB39
:1036C000DEFBFFFFFFFFFFFFFFFFAEFB07FF07FF74
:1036D0003575F79EEF7D349207FF07FFAEFBFFFFC6
:1036E000FFFFFFFFFFFF47FF073C073CFFFFFFFF18
:1036F000FFFFFFFFFFFF47FF073C279E279E07FFB7
:1037000047FFFFFFFFFFFFFFFFFFD69A07FF07FFFF
:10371000D69AFFFFFFFFFFFFFFFFD69A05D707FFEF
:10372000377DEF7DEF7D349207FF07FF379EF79ED1
:10373000FFFFFFFFFFFFAEFB05146E38FFFFFFFF2B
:10374000FFFFFFFFF79E379E073CB79EB79E05D74A
:10375000379EF79EFFFFFFFFFFFFF79E073C051414
:10376000D69AFFFFFFFFFFFFFFFF679E07FF07FFE0
:103770003555EF7DFFFF77FF35550FDF279ED73C8F
:10378000F79EFFFFFFFFFFFFD69AF79EFFFFFFFFA9
:10379000FFFFF79E8FFF07FF0DB6CFDFEF7D35559B
:1037A00007FF8FFFF79EFFFFFFFFFFFFAEFBAEFBA4
:1037B000FFFFFFFFFFFFF79ED73C279E0F1C3492B1
:1037C00077FFFFFFFFFFFFFFEF7DAEDB05D7279EF3
:1037D000357547FF47FF47FF47FF47FF47FF47FF55
:1037E00047FF357507FF05D7AEDBFFDFFFDFAEDB39
:1037F00005D707FF357547FF47FF47FF47FF47FFDF
:1038000047FF47FF47FF379E257507FFAEDBEF7D7C
:10381000FFFFFFFFFFFFFFFFFFFFFFFFAEDB3555A1
:10382000073C0514051405140514051405140514A6
:1038300005D705D7377DAEDBFFFFFFFFFFFFFFFF9B
:10384000AEDB377D051405140514051405140514A5
:103850000514051405140514377DAEDBFFFFFFFFCB
:10386000FFFFFFFFFFFFFFFFFFFFFFFFFFDFEF7D1A
:10387000BFFFBFFFBFFFBFFFBFFFBFFFBFFFBFFF58
:10388000BFFFBFFFEF7DFFDFFFFFFFFFFFFFFFFF7A
:10389000FFDFEF7DBFFFBFFFBFFFBFFFBFFFBFFF6A
:1038A000BFFFBFFFBFFFBFFFEF7DFFDFFFFFFFFFDA
:1038B000FFFFFFFFFFFFFFFFFFFFFFFFFFFFFFFF18
:1038C000FFFFFFFFFFFFFFFFFFFFFFFFFFFFFFFF08
:1038D000FFFFFFFFFFFFFFFFFFFFFFFFFFFFFFFFF8
:1038E000FFFFFFFFFFFFFFFFFFFFFFFFFFFFFFFFE8
:103C7000F79ED69A0000000000000000000000003F
:103C800000000404040404000004000014140A00EA
:103C9000000000000000000000000A0A1F0A0A1FBE
:103CA0000A0A000000040E1505060C14150E040087
:103CB000000012150D152E2C2A1200000000040A17
:103CC0000A36151529160000020201000000000046
:103CD0000000000010080804040404040808100090
:103CE0000204040808080808040402000000000494
:103CF000150E0E150400000000000008083E08081C
:103D000000000000000000000000000002020100AE
:103D100000000000003F0000000000000000000064
:103D20000000000000020000002010100808040439
:103D30000202010000000E1111111111110E0000FC
:103D40000000040604040404040E000000000E1128
:103D500011080402011F000000000E11100C1010C9
:103D6000110E00000000080C0C0A091F081C0000BE
:103D700000001F01010F1110110E000000000C12B5
:103D8000010D1311110E000000001E10080804049C
:103D90000404000000000E11110E1111110E00009C
:103DA00000000E1111191610090600000000000095
:103DB00004000000000400000000000000040000F7
:103DC00000040400000010080402020408100000AF
:103DD000000000003F003F0000000000000002045F
:103DE000081010080402000000000E11110804045D
:103DF0000004000000001C22292D2D1D221C0000A3
:103E0000000004040C0A0A1E1233000000000F1206
:103E1000120E1212120F000000001E11010101010A
:103E2000110E000000000F1212121212120F0000E9
:103E300000001F120A0E0A02121F000000001F12CB
:103E40000A0E0A020207000000001C1201013911CB
:103E5000120C000000003312121E12121233000066
:103E600000001F0404040404041F000000003E08B6
:103E70000808080808080907000037120A060A128D
:103E8000123700000000070202020202223F000077
:103E900000003B1B1B1B15151535000000003B12D5
:103EA00016161A1A1217000000000E111111111126
:103EB000110E000000000F12120E02020207000095
:103EC00000000E1111111117190E180000000F1229
:103ED000120E0A121237000000001E11010608100F
:103EE000110F000000001F1504040404040E00005C
:103EF0000000331212121212120C000000003312D2
:103F0000120A0A0C040400000000151515150E0A0B
:103F10000A0A000000001B0A0A04040A0A1B000027
:103F200000001B0A0A0A0404040E000000001F0916
:103F300008040402121F00001C0404040404040406
:103F400004041C0000020204040408080810100005
:103F50000E0808080808080808080E00040A0000EF
:103F60000000000000000000000000000000000051
:103F70000000003F020400000000000000000000FC
:103F800000000000000C121C123C000000030202A2
:103F9000020E1212120E000000000000001C12029D
:103FA000120C000000181010101C1212123C00001D
:103FB00000000000000C121E021C00000018240467
:103FC000041E0404041E000000000000003C120C4B
:103FD000021C221C00030202020E12121237000001
:103FE0000004040000060404040E00000008080099
:103FF000000C08080808080700030202021A0A0653
:104000000A1300000007040404040404041F000051
:1040100000000000000F151515150000000000003D
:10402000000F12121237000000000000000C1212E4
:10403000120C000000000000000F1212120E020706
:1040400000000000001C1212121C103800000000BA
:10405000001B06020207000000000000001E020C08
:10406000101E000000000004041E0404041C0000D4
:1040700000000000001B1212123C000000000000B3
:10408000001B0A0A04040000000000000015150EC1
:104090000A0A000000000000001B0A040A1B0000BE
:1040A00000000000003312120C080403000000009E
:1040B000001E0804041E000018080808080C080860
:1040C0000808180008080808080808080808080868
:1040D000060404040408040404040600160900008D
:1040E00000000000000000000000000000000000D0
:1040F0000000000000000000000000080808080898
:10410000080800001818000000486C241200000085
:1041100000000000000000000000002424247F12A2
:1041200012127F12121200000000081C2A2A0A0C28
:104130001828282A2A1C0808000000222515151511
:104140002A585454542200000000000C1212120A83
:1041500076252911916E0000000606040300000078
:1041600000000000000000000040201010080808B7
:104170000808081010204000000204080810101061
:1041800010101008080402000000000008086B1C52
:104190001C6B080800000000000000000808080868
:1041A0007F08080808000000000000000000000070
:1041B00000000000060604030000000000000000EC
:1041C000FE000000000000000000000000000000F1
:1041D0000000000006060000000080404020201083
:1041E00010080804040202000000001824424242A1
:1041F0004242424224180000000000080E0808084D
:1042000008080808083E00000000003C4242422026
:1042100020100804427E00000000003C42422018AA
:1042200020404042221C00000000002030282424AE
:1042300022227E20207800000000007E0202021A66
:1042400026404042221C0000000000382402021ACE
:1042500026424242241800000000007E2222101054
:1042600008080808080800000000003C42424224F8
:1042700018244242423C00000000001824424242FE
:1042800064584040241C0000000000000000181882
:1042900000000000181800000000000000000008E6
:1042A000000000000008080400000040201008047E
:1042B00002040810204000000000000000007F0001
:1042C00000007F0000000000000000020408102031
:1042D00040201008040200000000003C424246401A
:1042E00020101000181800000000001C225A55551C
:1042F00055552D42221C0000000000080818141417
:10430000243C224242E700000000001F2222221E1D
:1043100022424242221F00000000007C4242010172
:1043200001010142221C00000000001F2242424203
:1043300042424242221F00000000003F4212121E71
:1043400012120242423F00000000003F4212121EC1
:1043500012120202020700000000003C22220101AA
:1043600001712122221C0000000000E7424242426B
:104370007E42424242E700000000003E0808080872
:1043800008080808083E00000000007C101010100B
:10439000101010101010110F0000007722120A0EDA
:1043A0000A12122222770000000000070202020215
:1043B00002020202427F00000000007736363636E5
:1043C0002A2A2A2A2A6B0000000000E346464A4AAD
:1043D00052525262624700000000001C22414141DB
:1043E00041414141221C00000000003F4242424244
:1043F0003E020202020700000000001C224141416F
:1044000041414D53321C60000000003F4242423E99
:104410001212222242C700000000007C4242020425
:1044200018204042423E00000000007F4908080872
:1044300008080808081C0000000000E74242424249
:1044400042424242423C0000000000E74242222435
:1044500024141418080800000000006B4949494959
:104460005555362222220000000000E7422424187D
:104470001818242442E700000000007722221414B8
:1044800008080808081C00000000007E2120101009
:1044900008040442423F00000078080808080808A1
:1044A0000808080808087800000002020404080848
:1044B0000810102020204040001E10101010101076
:1044C0001010101010101E000038440000000000F2
:1044D00000000000000000000000000000000000DC
:1044E00000000000000000FF0006080000000000BF
:1044F0000000000000000000000000000000003C80
:104500004278444242FC0000000000030202021A0A
:1045100026424242261A0000000000000000003837
:10452000440202024438000000000060404040782D
:104530004442424264D80000000000000000003CF9
:10454000427E0202423C0000000000F08808087E23
:1045500008080808083E0000000000000000007C79
:1045600022221C023C42423C000000030202023AAA
:104570004642424242E700000000000C0C00000EE0
:1045800008080808083E000000000030300000382D
:10459000202020202020221E0000000302020272A0
:1045A000120A1612227700000000000E0808080800
:1045B00008080808083E0000000000000000007F16
:1045C0009292929292B70000000000000000003B1F
:1045D0004642424242E70000000000000000003C6A
:1045E00042424242423C0000000000000000001B2A
:1045F00026424242221E020700000000000000780E
:1046000044424242447840E000000000000000774D
:104610004C040404041F0000000000000000007CA3
:1046200042023C40423E0000000000000008083EFC
:1046300008080808083000000000000000000063BF
:104640004242424262DC000000000000000000E73D
:10465000422424140808000000000000000000EBC1
:104660004949555522220000000000000000007654
:1046700024181818246E000000000000000000E755
:104680004224241418080807000000000000007EDF
:1046900022100808447E000000C0202020202010A6
:1046A000202020202020C00010101010101010100A
:1046B000101010101010101000060808080808103C
:1046C00008080808080806000C32C20000000000B4
:1046D00000000000000000000000000000000000DA
:1046E00000000000000000000000000000000000CA
:1046F00000000000000000000000000000000000BA
:1047000000000000000000000000000000000000A9
:1047100060006000600060006000600060004000B9
:104720002000200020000000000000006000600069
:10473000600000000000000000000000600660064D
:1047400030039801880044000000000000000000D1
:104750000000000000000000000000000000000059
:104760000000000000000000000000000000000049
:104770001002100210021002FE07FE0708020801D4
:10478000080108010801FE07FE07040104010401F5
:1047900004010000000000000000000000004000D4
:1047A0004000F00158034C03CC034C00580070004B
:1047B000E000C001C00140034C035C034C0348010E
:1047C000F000400040000000000000000000000079
:1047D0000E010A01910091009100510051003A0030
:1047E000AE03A00250045004480448044804840264
:1047F0008403000000000000000000000000000032
:1048000038006C006C006C006C006C002C00980789
:104810001C011A01330133016301E300C308C60917
:104820003C07000000000000000000000C001C001D
:10483000100010000800040000000000000000004C
:104840000000000000000000000000000000000068
:104850000000000000000000000000000004000252
:104860000001800080004000400020002000200067
:104870002000200020002000400040008000800038
:10488000000100020004000000000000020004001B
:1048900008001000100020002000400040004000F0
:1048A00040004000400040002000200010001000A8
:1048B00008000400020000000000000000000000EA
:1048C000000000004000C0004000460C4E0FD00128
:1048D000F0015E0F460C4000400040000000000068
:1048E00000000000000000000000000000000000C8
:1048F0000000000000004000400040004000400078
:10490000FE0F40004000400040004000000000005A
:104910000000000000000000000000000000000097
:104920000000000000000000000000000000000087
:104930000000000000000000000000000C001C004F
:10494000100010000800040000000000000000003B
:104950000000000000000000000000000000000057
:10496000FE07000000000000000000000000000042
:104970000000000000000000000000000000000037
:104980000000000000000000000000000000000027
:104990000000000000000000000000001C001C00DF
:1049A0001C000000000000000000000000040006E1
:1049B0000002000300010001800080004000400070
:1049C00060002000200010001000080008000C000B
:1049D00004000600020000000000000000000000CB
:1049E0000000F00098010C030C03060606060606FC
:1049F000060606060606060606060C030C039801C4
:104A0000F0000000000000000000000000000000B6
:104A1000000040007C0060006000600060006000FA
:104A20006000600060006000600060006000600086
:104A3000FC03000000000000000000000000000077
:104A40000000F800840102030603060300030001CE
:104A50008001C0006000200010000802040206026D
:104A6000FE03000000000000000000000000000045
:104A700000007800C6008601860180018001C00028
:104A80007000800100010003000306030603860195
:104A9000F80000000000000000000000000000001E
:104AA000000080018001C001A001A00190018801E7
:104AB000880184018201FE0F800180018001800154
:104AC000E0070000000000000000000000000000FF
:104AD0000000FC0304000400040004000400F400CF
:104AE0008C01040300030003060306038201840112
:104AF000F8000000000000000000000000000000BE
:104B00000000E00118030C030C0004000600E6019D
:104B100016030E0606060606060604060C02180311
:104B2000F000000000000000000000000000000095
:104B30000000F8070C0604020401000100018000D7
:104B400080004000400040006000600060006000A5
:104B500060000000000000000000000000000000F5
:104B60000000F8010C030606060606060C021C03EC
:104B7000F000C8010C0306060606060606060C032E
:104B8000F001000000000000000000000000000034
:104B90000000F0000C010C030602060606060606DD
:104BA00006078C0678060006000300030C018C0142
:104BB000780000000000000000000000000000007D
:104BC000000000000000000000000000E000E00025
:104BD000E00000000000000000000000E000E00035
:104BE000E0000000000000000000000000000000E5
:104BF00000000000000000000000000060006000F5
:104C00000000000000000000000000000000600044
:104C100060004000200020000000000000000000B4
:104C20000004000200018000400020001000080085
:104C30000400080010002000400080000001000275
:104C40000004000000000000000000000000000060
:104C5000000000000000000000000000FE0700004F
:104C600000000000FE07000000000000000000003F
:104C70000000000000000000000000000000000034
:104C80000400080010002000400080000001000225
:104C90000004000200018000400020001000080015
:104CA0000400000000000000000000000000000000
:104CB0000000E0031806040C040C0C0C0C0C00079C
:104CC000800140004000400000000000E000E000E3
:104CD000E0000000000000000000000000000000F4
:104CE000E00018030C02CC0564056605A605B604B1
:104CF000B604B604B604B602E4010C040C021803B0
:104D0000F0000000000000000000000000000000B3
:104D10000000600060005000D0009000900088000B
:104D200088010801F80104030403040202020206D8
:104D30000F0F000000000000000000000000000055
:104D40000000FE008C030C030C030C030C038C010D
:104D5000FC000C030C020C060C060C060C060C03E3
:104D6000FE01000000000000000000000000000044
:104D70000000E00318030C060C04040406000600FF
:104D8000060006000600060006040C040C021803C8
:104D9000F000000000000000000000000000000023
:104DA00000007F008C010C030C030C060C060C06A3
:104DB0000C060C060C060C060C060C030C038C01EE
:104DC0007F00000000000000000000000000000064
:104DD0000000FF03060306040604060086008600A2
:104DE000FE00860086008600060006040604060211
:104DF000FF030000000000000000000000000000B1
:104E00000000FF0306030604060406008600860071
:104E1000FE008600860086000600060006000600EA
:104E20001F00000000000000000000000000000063
:104E30000000F00018010C020C020402060006003B
:104E400006000600C60F060306030C030C03180336
:104E5000F000000000000000000000000000000062
:104E600000000F0F060606060606060606060606DC
:104E7000FE070606060606060606060606060606D9
:104E80000F0F000000000000000000000000000004
:104E90000000FC03600060006000600060006000D3
:104EA0006000600060006000600060006000600002
:104EB000FC030000000000000000000000000000F3
:104EC0000000F807C000C000C000C000C000C00063
:104ED000C000C000C000C000C000C000C000C000D2
:104EE000C000C60066003C0000000000000000009A
:104EF0000000CF038601C6004600260016003600DB
:104F00002E006E004600C6008600860106010603DC
:104F10008F070000000000000000000000000000FB
:104F200000001F000600060006000600060006003E
:104F30000600060006000600060006040604060237
:104F4000FF0300000000000000000000000000005F
:104F500000000707860386038E038E034E034E036D
:104F60004A035A035A033A03320332033203120349
:104F700087070000000000000000000000000000A3
:104F800000008E0F0C021C021C0234023402640268
:104F900064024402C40284028403840304030403FD
:104FA0001F020000000000000000000000000000E0
:104FB0000000F00098010C030C0206060606060627
:104FC000060606060606060606060C020C039801EF
:104FD000F0000000000000000000000000000000E1
:104FE0000000FF000603060606060606060606067D
:104FF0008603FE0006000600060006000600060006
:105000001F00000000000000000000000000000081
:105010000000F00098010C030C02060606060606C6
:10502000060606060606060676064C02CC0398011E
:10503000F0008007000300000000000000000000F6
:105040000000FF010603060606060606060606031E
:10505000FE004600C600860086010603060306061B
:105060000F0E000000000000000000000000000023
:105070000000F8020C030602060206000E003C00C7
:10508000F800E003800300070206020606060C0390
:10509000F00100000000000000000000000000001F
:1050A0000000FE07620461086108600060006000A3
:1050B00060006000600060006000600060006000F0
:1050C000F8010000000000000000000000000000E7
:1050D00000001E070C020C020C020C020C020C0257
:1050E0000C020C020C020C020C020C020C02180145
:1050F000F0000000000000000000000000000000C0
:1051000000000F070602040104010C010C018800D5
:105110008800980098005000500070003000200077
:10512000200000000000000000000000000000005F
:105130000000F70E6204420446044604640264025E
:10514000E402E4029C029C01980198018801880015
:1051500088000000000000000000000000000000C7
:1051600000009E070C01080118019000B0006000CB
:10517000200060006000D000900088010801040356
:105180008E0700000000000000000000000000008A
:1051900000000F0F060404020C0208011801B800F9
:1051A000B00070006000600060006000600060009F
:1051B000F8010000000000000000000000000000F6
:1051C0000000FC070C020603020180018000400081
:1051D0004000200020001000180008040C04040205
:1051E000FE0300000000000000000000E0032000BB
:1051F00020002000200020002000200020002000AF
:10520000200020002000200020002000200020009E
:1052100020002000E003000000000000000000006B
:105220000400040008000800100010001000200016
:10523000200040004000C00080008000000100010C
:105240000002000200020004000000007C00400098
:10525000400040004000400040004000400040004E
:10526000400040004000400040004000400040003E
:10527000400040007C000000000060009000080139
:10528000000000000000000000000000000000001E
:10529000000000000000000000000000000000000E
:1052A00000000000000000000000000000000000FE
:1052B00000000000000000000000000000000000EE
:1052C00000000000000000000000000000000000DE
:1052D000000000000000FF0F000000001800600048
:1052E00000000000000000000000000000000000BE
:1052F00000000000000000000000000000000000AE
:10530000000000000000000000000000000000009D
:10531000000000000000000000000000F0010C038D
:105320000C030003E0031C030E03060306038E0BAD
:105330007C0E0000000000000000000000000000E3
:1053400008000E000C000C000C000C00CC013C030B
:105350001C060C060C060C060C060C060C021C03A4
:10536000E401000000000000000000000000000058
:10537000000000000000000000000000F0008C01B0
:105380008C01860106000600060006020C020C01D4
:10539000F00000000000000000000000000000001D
:1053A0000002C003000300030003000378038C0322
:1053B0000C030603060306030603060304038C0717
:1053C0007801000000000000000000000000000064
:1053D000000000000000000000000000E0011803D1
:1053E00008020C060C06FC070C000C00180418023E
:1053F000E0010000000000000000000000000000CC
:105400000000C0036006300630003000FE013000AE
:10541000300030003000300030003000300030000C
:10542000FC0100000000000000000000000000007F
:10543000000000000000000000000000F007D80697
:105440008C018C018C019801F8000C00FC00CC034D
:10545000060306038E03F8000000000000000000B1
:1054600008000E000C000C000C000C00EC011C03EA
:105470000C030C030C030C030C030C030C030C03B4
:105480009E07000000000000000000000000000077
:105490000000600060000000000040007C00600030
:1054A00060006000600060006000600060006000FC
:1054B000FC030000000000000000000000000000ED
:1054C0000000C001C001000000000001F0018001E7
:1054D00080018001800180018001800180018001C4
:1054E00080018001CC007C00000000000000000072
:1054F00008000E000C000C000C000C008C038C004B
:105500008C004C006C005C008C008C010C010C03C6
:105510009E070000000000000000000000000000E6
:1055200040007C006000600060006000600060007F
:10553000600060006000600060006000600060006B
:10554000FC0300000000000000000000000000005C
:105550000000000000000000000000003707EE0619
:1055600066066606660666066606660666066606DB
:10557000FF0F00000000000000000000000000001D
:10558000000000000000000000000000EE011C030D
:105590000C030C030C030C030C030C030C030C0393
:1055A0009E07000000000000000000000000000056
:1055B000000000000000000000000000F000980162
:1055C0000C03060606060606060606060C030C0372
:1055D000F0000000000000000000000000000000DB
:1055E000000000000000000000000000EE011C03AD
:1055F0000C060C060C060C060C060C060C031C0311
:10560000EC010C000C003E00000000000000000057
:1056100000000000000000000000000078028C0381
:105620000C030603060306030603060304038C03A8
:10563000780300030003C007000000000000000022
:105640000000000000000000000000009F0358065A
:105650003806180018001800180018001800180064
:10566000FF0000000000000000000000000000003B
:10567000000000000000000000000000F0031C0318
:105680000C020C023800F000C003040304038C0376
:10569000FC0100000000000000000000000000000D
:1056A000000000002000200030003000FE0130002B
:1056B0003000300030003000300030003002300266
:1056C000E0010000000000000000000000000000F9
:1056D0000000000000000000000008028E030C0320
:1056E0000C030C030C030C030C030C030C039C07AE
:1056F0007801000000000000000000000000000031
:105700000000000000000000000000001E070C0266
:105710000801080118019000B000B00060006000AE
:105720002000000000000000000000000000000059
:10573000000000000000000000000000F70E6204FE
:10574000460464026402EC029C01980198019801ED
:105750000800000000000000000000000000000041
:10576000000000000000000000000000BC0718015D
:105770001001B00060006000E00090000801080324
:105780009E07000000000000000000000000000074
:105790000000000000000000000000009E0708015B
:1057A0000801080190009000B000600060006000F7
:1057B0002000200024001C00000000000000000069
:1057C000000000000000000000000000FC01840157
:1057D000C4004400600020003000180208020C03DE
:1057E000FC01000000000000000000000003800039
:1057F00080008000800080008000800080004000E9
:105800002000400080008000800080008000800038
:105810008000800000030000400040004000400085
:105820004000400040004000400040004000400078
:105830004000400040004000400040004000400068
:105840004000400040004000000000000C0010003C
:1058500010001000100010001000100010002000B8
:105860004000200010001000100010001000100078
:10587000100010000C00000000001C002204C204F4
:105880008003000000000000000000000000000095
:105890000000000000000000000000000000000008
:1058A00000000000000000000000000000000000F8
:1058B00000000000000000000000000000000000E8
:1058C00000000000000000000000000000000000D8
:1058D00000000000000000000000000000000000C8
:1058E00000000000000000000000000000000000B8
:1058F0000000C001C001C001C001C001C001C00161
:105900008000800080008000800080008000000017
:105910000000000000008001C003C00380010000FF
:105920000000000000000000000000000000E01C7B
:10593000E01CF01E700E38071803080184000000F8
:105940000000000000000000000000000000000057
:105950000000000000000000000000000000000047
:105960000000000000000000000000000000000037
:105970000000000020102010201020102010FE7FBA
:10598000FE7F1008100810081008100810081008F2
:10599000FE7FFE7F080408040804080408040000D1
:1059A00000000000000000000000000000000000F7
:1059B00000010001C0076019103118311839183979
:1059C00038017001E001C0038007000F001D00399D
:1059D00000311C311C310C310C11180DE007000195
:1059E00000010001000000000000000000000000B5
:1059F000000000001C1036186308630C6304630485
:105A0000630263026301361D9C378022806340631A
:105A1000406320632063306310221836081C0000A6
:105A20000000000000000000000000000000000076
:105A300000000000F00098018C018C018C018C01A9
:105A40008C00CC007800183E1C083608320863042D
:105A50006304C304C303834306438E26781C0000FB
:105A600000000000000000000000000000001C001A
:105A70003C003C003000300010000C00060000002C
:105A80000000000000000000000000000000000016
:105A90000000000000000000000000000000000006
:105AA00000000000000000000000000000000040B6
:105AB000002000100008000C000400060003000392
:105AC000000380018001800180018001800180014C
:105AD000800100030003000300060006000C00081C
:105AE0000010002000400000000000000000020044
:105AF000040008001000300020006000C000C0005A
:105B0000C00080018001800180018001800180014E
:105B10008001C000C000C0006000600030001000C4
:105B20000800040002000000000000000000000067
:105B3000000000000000000000018003800300015D
:105B40001C713C79783DC0070001C007783D3C7965
:105B50001C71000180038003800100000000000030
:105B60000000000000000000000000000000000035
:105B70000000000000000000000000010001000122
:105B80000001000100010001FC7F00010001000193
:105B90000001000100010001000000000000000001
:105BA00000000000000000000000000000000000F5
:105BB00000000000000000000000000000000000E5
:105BC00000000000000000000000000000000000D5
:105BD00000000000000000001C003C003C00300001
:105BE000300010000C000600000000000000000063
:105BF00000000000000000000000000000000000A5
:105C00000000000000000000FE7F00000000000017
:105C10000000000000000000000000000000000084
:105C20000000000000000000000000000000000074
:105C30000000000000000000000000000000000064
:105C40000000000000000000000000000000000054
:105C500000000000000018003C003C00180000009C
:105C600000000000000000000000000000000040F4
:105C7000006000200030001000180008000C000434
:105C8000000600020003000180018000C000400007
:105C90006000200030001000180008000C00040014
:105CA00006000200000000000000000000000000EC
:105CB00000000000C007600C3018183018301820A1
:105CC0000C600C600C600C600C600C600C600C6074
:105CD0000C601820183018303018600CC007000015
:105CE00000000000000000000000000000000000B4
:105CF0000000000000018001F801800180018001A6
:105D0000800180018001800180018001800180018B
:105D100080018001800180018001C003F81F000024
:105D20000000000000000000000000000000000073
:105D300000000000E007101C0818043004300C308C
:105D40000C30003000180008000400020001800040
:105D500040002020102008200430FC1FFC1F000001
:105D60000000000000000000000000000000000033
:105D700000000000E003180E0C0C0C180C180C1896
:105D80000018000C0006C003000E001800100030C0
:105D900000300C300C300C100C18180CE003000014
:105DA00000000000000000000000000000000000F3
:105DB00000000000000C000E000E000F800E800E90
:105DC000400E600E200E100E100E080E040E040E73
:105DD000FE7F000E000E000E000E000E000EC07FB3
:105DE00000000000000000000000000000000000B3
:105DF00000000000F03FF03F10001000100008000D
:105E00000800C807280C18180810003000300030AF
:105E100000300C300C3004180418080CF00300009B
:105E20000000000000000000000000000000000072
:105E300000000000800FC010203010301800180043
:105E400008000C008C0F6C183C301C600C600C605F
:105E50000C600C601860182030306018C00700001B
:105E60000000000000000000000000000000000032
:105E700000000000F83FF83F1C100C080408040460
:105E80000004000200020001000100018000800007
:105E90008000C000C000C000C000C000C000000002
:105EA00000000000000000000000000000000000F2
:105EB00000000000E007300C18180C300C300C30DB
:105EC0001C3038187008E007B007180E0C1C063894
:105ED00006300630063006300C18180CE0030000BF
:105EE00000000000000000000000000000000000B2
:105EF00000000000E00318040C080C18061006301F
:105F000006300630063006380C3C1836F0310030CA
:105F10000018001800180C0C0C060C03F00100000F
:105F20000000000000000000000000000000000071
:105F30000000000000000000000000000000000061
:105F400000008001C003C0038001000000000000C9
:105F50000000000000008001C003C00380010000B9
:105F60000000000000000000000000000000000031
:105F70000000000000000000000000000000000021
:105F80000000C000C0000000000000000000000091
:105F900000000000000000000000C000C000800001
:105FA00080004000400000000000000000000000F1
:105FB000000000200010000800040006000380011B
:105FC000C0006000300018000C00180030006000B5
:105FD000C00080010003000600040008001000203B
:105FE00000000000000000000000000000000000B1
:105FF00000000000000000000000000000000000A1
:106000000000FE7F00000000000000000000FE7F96
:106010000000000000000000000000000000000080
:106020000000000000000000000000000000000070
:10603000000004000800100020006000C000800183
:1060400000030006000C001800300018000C0006C9
:1060500000038001C0006000200010000800040060
:106060000000000000000000000000000000000030
:106070000000C0073018083008600C601C601C600D
:106080001C600030001C00060001800080008000C1
:106090008000000000008001C003C00380010000F8
:1060A00000000000000000000000000000000000F0
:1060B00000000000C0076018103018200C2F8C4D15
:1060C000864CC64CC64C664C6644664466266626BC
:1060D0006615CC1C0C40082018303018C007000092
:1060E00000000000000000000000000000000000B0
:1060F00000000001C001C001C00140016003200395
:10610000200320033006100610061006F80F080CB6
:10611000080C080C0C0C0418041806181F7C00004E
:10612000000000000000000000000000000000006F
:1061300000000000FE07181C1838183018301830FE
:1061400018301818180CF80718181830182018608C
:10615000186018601860186018301818FE0F0000DA
:10616000000000000000000000000000000000002F
:1061700000000000C0276038103018200C400C4090
:1061800004000600060006000600060006000600E1
:1061900006000C400C400C2018303018C0070000DE
:1061A00000000000000000000000000000000000EF
:1061B00000000000FE03180E1818183018301830B0
:1061C000186018601860186018601860186018600F
:1061D00018601830183018101818180EFE03000038
:1061E00000000000000000000000000000000000AF
:1061F00000000000FE3F18301820186018401800FA
:1062000018081808180CF80F180C180818081800A7
:10621000180018001840184018201830FE3F0000E1
:10622000000000000000000000000000000000006E
:1062300000000000FE7F1870184018C01880180079
:10624000181018101818F81F18181810181018001F
:106250001800180018001800180018007E00000030
:10626000000000000000000000000000000000002E
:1062700000000000C013701C101018100C200C201F
:1062800004000600060006000600060006FC0630B4
:1062900006300C300C30183018303008C0070000C1
:1062A00000000000000000000000000000000000EE
:1062B000000000003F7E0C180C180C180C180C186D
:1062C0000C180C180C180C18FC1F0C180C180C18B7
:1062D0000C180C180C180C180C180C183F7E000029
:1062E00000000000000000000000000000000000AE
:1062F00000000000F81F8001800180018001800102
:106300008001800180018001800180018001800185
:10631000800180018001800180018001F81F000060
:10632000000000000000000000000000000000006D
:1063300000000000E07F00060006000600060006E0
:10634000000600060006000600060006000600061D
:10635000000600060006000600060006000600060D
:106360000E060E038E01FC0000000000000000007D
:10637000000000007E7C181818081804180618027F
:10638000180198019801D801B803380318071806B6
:10639000180E180C181C1818183018307EFC000045
:1063A00000000000000000000000000000000000ED
:1063B000000000007E0018001800180018001800E7
:1063C000180018001800180018001800180018000D
:1063D000180018001840184018201830FE3F000020
:1063E00000000000000000000000000000000000AD
:1063F000000000001FF81C381C381C381C3C3434CA
:106400003434343434367432643264326432643155
:10641000C431C431C431C430C43084309FFC000066
:10642000000000000000000000000000000000006C
:10643000000000001F7C1C103C103410341074103D
:106440006410E410C410C4118411841304130417DD
:106450000416041E041C041C041C04181F1800004D
:10646000000000000000000000000000000000002C
:1064700000000000C003300C181808100C300C305D
:1064800006600660066006600660066006600660DC
:1064900006600C200C3008101818300CC0030000E7
:1064A00000000000000000000000000000000000EC
:1064B00000000000FE0F18181830186018601860EF
:1064C0001860186018301818F80F18001800180015
:1064D0001800180018001800180018007E000000AE
:1064E00000000000000000000000000000000000AC
:1064F00000000000C003300C18180C100C300C20E9
:10650000066006600660066006600660066006605B
:106510000660E4612C331C321816300EC007004CA4
:10652000007C0038000000000000000000000000B7
:1065300000000000FE07181C1838183018301830FA
:1065400018301818180CF8079803180318071806BD
:106550001806180E180C180C181C18187E78000055
:10656000000000000000000000000000000000002B
:1065700000000000E027303818300C200C200C0000
:106580000C0018007800E003800F001E0038007037
:10659000006004600460086018303818C80F0000FC
:1065A00000000000000000000000000000000000EB
:1065B00000000000FC3F8C21846182418241800107
:1065C00080018001800180018001800180018001C3
:1065D000800180018001800180018001E0070000CE
:1065E00000000000000000000000000000000000AB
:1065F000000000003F7C0C100C100C100C100C1054
:106600000C100C100C100C100C100C100C100C10AA
:106610000C100C100C100C1008083804E0030000DB
:10662000000000000000000000000000000000006A
:10663000000000003EF818201820182030103010FC
:1066400030103010600860086008E00CC004C0041E
:10665000C004800380038003800300010001000068
:10666000000000000000000000000000000000002A
:1066700000000000DFF38661862186218C210C2139
:106680008C238C138C138C134C1358125816580EE1
:10669000380E380E380E300C1004100410040000B0
:1066A00000000000000000000000000000000000EA
:1066B000000000007E3E18083808300430047002E4
:1066C0006002E001C001C001800180034003400777
:1066D00020062006100C100C081808183E7C00003C
:1066E00000000000000000000000000000000000AA
:1066F000000000007E7C1C10181018083008300CB8
:10670000700460046002C002C002C0018001800108
:10671000800180018001800180018001E00700008C
:106720000000000000000000000000000000000069
:1067300000000000F83F18180818040C040E0006AA
:106740000007000380038001C001C000E00060007A
:1067500070003000382018201C100C18FE1F00009C
:106760000000000000000000000000000000C03F2A
:106770004000400040004000400040004000400019
:106780004000400040004000400040004000400009
:1067900040004000400040004000400040004000F9
:1067A0004000C03F000000000000000000000000AA
:1067B00000000800180018001000300020006000E1
:1067C00060004000C00080008001800100010003E3
:1067D0000002000600060004000C00080018001863
:1067E0000010003000200000000000000000FC034A
:1067F0000002000200020002000200020002000289
:106800000002000200020002000200020002000278
:106810000002000200020002000200020002000268
:106820000002FC03000000000000000000008007E0
:10683000C00620081010000000000000000000004A
:106840000000000000000000000000000000000048
:106850000000000000000000000000000000000038
:106860000000000000000000000000000000000028
:106870000000000000000000000000000000000018
:106880000000000000000000000000000000000008
:1068900000000000000000000000000000000000F8
:1068A000000000000000FFFF000000000000780072
:1068B000C000000100000000000000000000000017
:1068C00000000000000000000000000000000000C8
:1068D00000000000000000000000000000000000B8
:1068E00000000000000000000000000000000000A8
:1068F0000000000000000000000000000000000098
:106900000000F00318060C0C0C0C000C800F700C2F
:106910001C0C0C0C060C060C064C0C4FF838000036
:106920000000000000000000000000000000000067
:10693000000010001E0018001800180018001800B1
:106940001800180FD81838303860186018601860B0
:10695000186018601860182038307818C8070000D0
:106960000000000000000000000000000000000027
:106970000000000000000000000000000000000017
:106980000000C007700C181818180C180C000C0028
:106990000C000C000C20182018103008C007000054
:1069A00000000000000000000000000000000000E7
:1069B00000000010001E0018001800180018001831
:1069C0000018E01B301C181818180C180C180C189C
:1069D0000C180C180C180818181C307AE009000064
:1069E00000000000000000000000000000000000A7
:1069F0000000000000000000000000000000000097
:106A00000000C007300C181808100C300C30FC3F88
:106A10000C000C000C00182018107018C0070000A3
:106A20000000000000000000000000000000000066
:106A300000000000003E80C380C0C0C0C000C00095
:106A4000C000FC1FC000C000C000C000C000C000EB
:106A5000C000C000C000C000C000C000F80F0000AF
:106A60000000000000000000000000000000000026
:106A70000000000000000000000000000000000016
:106A80000000C077306C1018181818181818101853
:106A9000300CF00718001800F00FF03F08700C6081
:106AA0000C600C603838E00F0000000000000000AF
:106AB000000010001E001800180018001800180030
:106AC0001800980FD818383018301830183018308F
:106AD0001830183018301830183018307EFC00008C
:106AE00000000000000000000000000000000000A6
:106AF000000000008003800380030000000000000D
:106B00000001F80180018001800180018001800185
:106B1000800180018001800180018001F81F000058
:106B20000000000000000000000000000000000065
:106B300000000000003800380038000000000000AD
:106B40000010801F00180018001800180018001806
:106B50000018001800180018001800180018001875
:106B60000018180C1806F0030000000000000000D8
:106B7000000010001E00180018001800180018006F
:106B80001800183E180C1806180318019801D801AF
:106B9000380318071806180C181C18187E7C0000FB
:106BA00000000000000000000000000000000000E5
:106BB00000000001F8018001800180018001800156
:106BC00080018001800180018001800180018001BD
:106BD000800180018001800180018001F81F000098
:106BE00000000000000000000000000000000000A5
:106BF0000000000000000000000000000000000095
:106C00000800EE1C9C338C318C318C318C318C31F2
:106C10008C318C318C318C318C318C31DE7B0000AD
:106C20000000000000000000000000000000000064
:106C30000000000000000000000000000000000054
:106C400010001E0FD818383018301830183018308F
