:020000040800F2
:10000000C804002049010008CD110008DF070008DE
:10001000C9110008F10500081718000800000000C9
:100020000000000000000000000000004D13000868
:10003000F5050008000000005512000861140008D2
:100040006301000863010008630100086301000800
:1000500063010008630100086301000863010008F0
:1000600063010008630100086301000863010008E0
:1000700063010008630100086301000863010008D0
:1000800063010008630100086301000863010008C0
:1000900063010008630100086301000863010008B0
:1000A00063010008630100086301000863010008A0
:1000B0006301000863010008630100086301000890
:1000C0006301000863010008630100086301000880
:1000D00063010008091500086301000805160008FF
:1000E0006301000863010008630100086301000860
:1000F0006301000863010008630100086301000850
:10010000630100086301000863010008630100083F
:1001100063010008C51400086301000863010008BA
:10012000630100086301000863010008630100081F
:10013000DFF810D000F020FA00480047BD24000886
:10014000AFF30080C80400200648804706480047F7
:10015000FEE7FEE7FEE7FEE7FEE7FEE7FEE7FEE777
:10016000FEE7FEE765140008310100082DE9FE4FA7
:10017000804681EA0300C00F0C46009021F0004148
:1001800023F00045B8EB0200A94105D240462146C4
:1001900090461C460B46024623F00040104347D0D1
:1001A000270DC7F30A00C3F30A510290401A0190C9
:1001B00040286BDAC3F3130040F4801B009892468A
:1001C00020B10023D2EB030A63EB0B0B01985946D5
:1001D000C0F14002504600F040F906460D46504638
:1001E0005946019A00F058F910EB080061410024CB
:1001F00087EA115284EAE7731A4340D0009A62B347
:10020000019A012A4FEA075215DC001B61EB02013B
:100210004FF0004202EA0752CDE90042001C41F5CE
:10022000801132462B4600F058F903B0BDE8F08F3C
:1002300040462146F9E7001B61EB0201001C41F535
:10024000801300185B412018A2F5001747EB03014B
:1002500040EAD570B6196D4111E06D084FEA3606D7
:1002600045EAC0754FEA0752001B61EB0201001C12
:1002700041F5801149084FEA3000001951413246DA
:100280002B4603B0BDE8F04F00F018B900980122EA
:1002900040000023D0EB020263EBE073009821469C
:1002A0004FEAE074B8EB000061EB0401E9E783F08A
:1002B00000435BE781F0004158E72DE9F04D81EA0A
:1002C000030404F0004B21F0004514464FF0000AEF
:1002D00023F0004150EA050220D054EA01021DD06B
:1002E000C5F30A570246C5F31303C1F31300C1F364
:1002F0000A5640F4801543F48013A7EB0608101B40
:10030000D64608F2FD3873EB050002D308F1010868
:1003100001E092185B41B8F1000F03DA00200146BA
:10032000BDE8F08D00204FF48011064684460EE0B3
:10033000171B73EB050705D3121B63EB050306437D
:100340004CEA010C49084FEA300092185B4150EA30
:100350000107EDD152EA030012D082EA040083EAD9
:100360000501084305D0101BAB4106D20122002332
:1003700006E000224FF0004302E06FF0010253104C
:100380001AEB06004CEB085110EB0A0041EB0B0195
:10039000BDE8F04D00F092B80EB5C10F80EAE070F4
:1003A0000844CA07002140F233438DE80E000A4694
:1003B0000B4600F092F803B000BD70B5C1F30A52CD
:1003C00001F000450024C1F3130140F2FF3341F472
:1003D00080119A4201DA002070BD40F233439A4204
:1003E000A2F2334203DC524200F046F800E09040B3
:1003F0002C43F1D0404270BD2DE9F05F054600204E
:1004000092469B4688460646814640241BE0284685
:1004100041464746224600F02FF853465A46C01A36
:10042000914110D311461846224600F016F82D1AB5
:1004300067EB01084F4622460120002100F00DF82D
:1004400017EB00094E41201EA4F10104DFDC4846F1
:1004500031462A464346BDE8F09F202A04DB203A75
:1004600000FA02F1002070479140C2F1200320FA07
:1004700003F3194390407047202A04DB203A21FA05
:1004800002F00021704721FA02F3D040C2F12002AD
:100490009140084319467047202A06DBCB17203AC3
:1004A00041FA02F043EAE07306E041FA02F3D04079
:1004B000C2F12002914008431946704710B5141E3E
:1004C00073F1000408DA401C41F1000192185B410D
:1004D0001A4301D120F0010010BD2DE9F04D9246E4
:1004E0009B4611B1B1FA81F202E0B0FA80F22032FB
:1004F0009046FFF7B2FF04460F4640EA0A0041EA81
:100500000B0153465A46084313D0114653EA0100E3
:1005100019D0C8F140025046FFF7AEFF05460E461F
:10052000504659464246FFF798FF084305D0012040
:1005300004E020463946BDE8F08D0020054346EA38
:10054000E0762C4337430A986305E40AA0EB0800E1
:100550000022FD0A44EA47540A3002D50020014631
:10056000E9E7010510196941DDE90845001969410C
:10057000BDE8F04DA2E70000064C074D06E0E0683C
:1005800040F0010394E8070098471034AC42F6D3DA
:10059000FFF7D2FD685900088859000808B500F037
:1005A00061FF4FF4A06000F04BFE01F08BFB01F007
:1005B0006BFF00F005FB4FF4E13000F0C7FF00F0E7
:1005C000B3FB01F04FFE4FF6FF705023A022002135
:1005D0000090084600F037FB0121084600F03CFE81
:1005E0000121024800F0A6F808BD0000000230001A
:1005F00000BFFEE7704701B500200AE0002001E0DF
:10060000411CC8B23228FBDB9DF80010491EC9B25C
:1006100000919DF800100029F0D108BD2DE9F041AE
:10062000024600250026002000230024002791F820
:1006300003C00CF00F0591F803C00CF0100CBCF1D6
:10064000000F03D091F802C04CEA050591F800C0F4
:10065000BCF1000F31D0146800202BE04FF0010CEA
:100660000CFA00F3B1F800C00CEA03069E4220D158
:1006700083004FF00F0C0CFA03F7BC4305FA03FCA0
:100680004CEA040491F803C0BCF1280F06D14FF0E6
:10069000010C0CFA00FCC2F814C00AE091F803C087
:1006A000BCF1480F05D14FF0010C0CFA00FCC2F868
:1006B00010C0401C0828D1D31460B1F800C0BCF1B0
:1006C000FF0F34DD546800202EE000F1080C4FF0DD
:1006D000010808FA0CF3B1F800C00CEA03069E42C8
:1006E00021D183004FF00F0C0CFA03F7BC4305FA3D
:1006F00003FC4CEA040491F803C0BCF1280F05D1B7
:1007000000F1080C08FA0CF8C2F8148091F803C044
:10071000BCF1480F07D100F1080C4FF0010808FAAE
:100720000CF8C2F81080401C0828CED35460BDE8F5
:10073000F0810000F0B50A460023002400210025C6
:1007400000F00046B6F1004F02D11D4EF16901E004
:100750001B4E7168C0F3034583B200F44016B6F532
:10076000401F08D121F07061154E766826F0706642
:10077000134F7E6012E000F48016B6F5801F06D19C
:10078000032606FA05F4A14341F0706106E0460D28
:10079000360103FA06F6B14341F0706122B1460D0D
:1007A000360103FA06F6314300F00046B6F1004F79
:1007B00002D1034EF16101E0014E7160F0BD000015
:1007C000000001400246002093680B400BB101205D
:1007D00000E000207047416170470161704700BF31
:1007E000FEE7000010B500200E4908600E480068C2
:1007F00020F470400C4908600846006840F44050FE
:10080000086000200949C1F8AC010120FFF7F3FEA0
:10081000012004490860FFF7EEFE00200349C1F8FB
:10082000A80110BDA8812142040C01400080214292
:100830000848806940F00800064988610648006859
:1008400020F47F40044908600846006840F44C509A
:100850000860704700100240040C014010B50020F1
:100860000E4908600E48006820F470400C4908608A
:100870000846006840F44050086001200949C1F86A
:10088000AC01FFF7B8FE012004490860FFF7B3FE92
:1008900000200449C1F8A80110BD0000A881214230
:1008A000040C01400080214270B505460024174821
:1008B000006820F47040154908600846006840F45C
:1008C00000400860002616E0002011490860022060
:1008D000FFF791FE01200F49C1F8A8016006040E40
:1008E0000B487C38006808B1601CC4B20220FFF7D6
:1008F00082FE701CC6B2082EE6DB15B1FFF772FF50
:1009000001E0FFF7ABFF204670BD0000040C014082
:10091000A88121420080214270B504461448006835
:1009200020F47040124908600846006840F44050C6
:10093000086000200F490860002516E0E0090D4915
:10094000091D08606006040E0120FFF754FE012017
:100950000949C1F8A801FFF74EFE002005490860CB
:100960000120FFF748FE681CC5B2082DE6DB70BD0C
:10097000040C0140A88121420080214210B5164894
:10098000006820F47040144908600846006840F48C
:10099000405008600120114908601148D0F82C012E
:1009A00008B9002010BD01200C49091F0860FFF79D
:1009B00022FE00200A49C1F8AC01084880380068CE
:1009C00008B10020EEE70220FFF715FE00200349E2
:1009D000091F08600120E5E7040C0140AC812142B9
:1009E0000080214210B51048006820F470400E4984
:1009F00008600846006840F44050086000200B4939
:100A000008600B49C1F8AC010220FFF7F4FD01209A
:100A100006490860FFF7EFFD01200549C1F8AC0168
:100A20000220FFF7E8FD10BD040C0140A88121421F
:100A30000080214210B500241548006820F4704061
:100A4000134908600846006840F40040086001202F
:100A500010490860FFF7CFFD01200F49C1F8A80138
:100A6000FFF7C9FD0AE0601CC4B2322C03DDFFF7BA
:100A7000B9FF002010BD0120FFF7BDFD05488038FB
:100A800000680028EFD10349091F08600120F1E741
:100A9000040C0140AC812142008021422DE9F0414B
:100AA0000746884615461E460024FFF767FF38466E
:100AB000FFF732FFFFF7BEFF4046FFF72DFFFFF7BE
:100AC000B9FFFFF75BFF791CC8B2FFF725FFFFF7FF
:100AD000B1FF00BF0DE0681EA04204D00120FFF767
:100AE000E3FE305503E00020FFF7DEFE3055601CCA
:100AF000C4B2AC42EFDBFFF775FF2046BDE8F081E2
:100B000037B504460D4602AB01222946204600F0C7
:100B100001F83EBD2DE9F04180460D4616461F46C0
:100B20000024FFF72BFF4046FFF7F6FEFFF782FF9A
:100B30002846FFF7F1FEFFF77DFF00BF06E0385DB6
:100B4000FFF7EAFEFFF776FF601CC4B2B442F6DBA3
:100B5000FFF748FF0120BDE8F081000010B5044612
:100B600000F022F801280BD1601C0D490988B1EB77
:100B7000400F0ADA0A480088401C0949088004E04E
:100B80000020074908800749088005480088022896
:100B900003D101200349088010BD0020FCE70000BC
:100BA000920000209000002010B520210348FFF79C
:100BB00009FE08B9012010BD0020FCE7000C01402F
:100BC00008B50121082000F047FB2020ADF8000007
:100BD00048208DF8030069460148FFF71FFD08BD56
:100BE000000C01402DE9F04104460D4616461F4613
:100BF0002A2000F0A7FA611C88B200F094FA711C58
:100C000088B200F090FA2B2000F09CFA05F11A014E
:100C100088B200F088FA07F11A0188B200F083FA6E
:100C20002C2000F08FFABDE8F08170B504460D4627
:100C300016462B46224629462046FFF7D3FF30466C
:100C400000F071FA70BD2DE9F04706460F461446D4
:100C50001D46DDF820A0681E83B2601E82B23946B0
:100C60003046FFF7BFFFB8460EE0B14606E05046FB
:100C700000F059FA09F101001FFA80F9A145F6DBED
:100C800008F101001FFA80F8A845EEDBBDE8F08707
:100C900008B50121082000F0DFFA4FF44070ADF8EC
:100CA000000010208DF8030003208DF80200694633
:100CB0001A48FFF7B3FC4FF440711848FFF78DFD59
:100CC0000121102000F0C8FA4FF4E050ADF8000008
:100CD00010208DF8030003208DF8020069461048AB
:100CE000FFF79CFC4FF4E0510D48FFF776FD012122
:100CF000202000F0B1FA0420ADF8000010208DF89B
:100D0000030003208DF8020069460648FFF786FCC1
:100D100004210448FFF761FD08BD0000000C0140FC
:100D2000001001400014014008B5FFF7B1FF4FF477
:100D300000619548FFF74FFD642000F0E9FF4FF494
:100D400000619148FFF749FD642000F0E1FF4FF496
:100D500080618D48FFF73FFD642000F0D9FF11202E
:100D600000F0F0F9782000F0D3FFB12000F0EAF9AC
:100D7000052000F0E1F93C2000F0DEF93C2000F015
:100D8000DBF9B22000F0DEF9052000F0D5F93C20B7
:100D900000F0D2F93C2000F0CFF9B32000F0D2F9F6
:100DA000052000F0C9F93C2000F0C6F93C2000F015
:100DB000C3F9052000F0C0F93C2000F0BDF93C204B
:100DC00000F0BAF9B42000F0BDF9032000F0B4F946
:100DD000C02000F0B7F9AB2000F0AEF90B2000F016
:100DE000ABF9042000F0A8F9C12000F0ABF9C52050
:100DF00000F0A2F9C22000F0A5F90D2000F09CF946
:100E0000002000F099F9C32000F09CF98D2000F03B
:100E100093F96A2000F090F9C42000F093F98D2036
:100E200000F08AF9EE2000F087F9C52000F08AF979
:100E30000F2000F081F9E02000F084F9072000F095
:100E40007BF90E2000F078F9082000F075F90720F2
:100E500000F072F9102000F06FF9072000F06CF933
:100E6000022000F069F9072000F066F9092000F07F
:100E700063F90F2000F060F9252000F05DF93620BD
:100E800000F05AF9002000F057F9082000F054F95A
:100E9000042000F051F9102000F04EF9E12000F09C
:100EA00051F90A2000F048F90D2000F045F908201A
:100EB00000F042F9072000F03FF90F2000F03CF964
:100EC000072000F039F9022000F036F9072000F081
:100ED00033F9092000F030F90F2000F02DF925201A
:100EE00000F02AF9352000F027F9002000F024F95D
:100EF000092000F021F9042000F01EF9102000F074
:100F00001BF9FC2000F01EF9802000F015F93A20B2
:100F100000F018F9052000F00FF9362000F012F962
:100F2000782000F009F9212000F00CF9292000F0C8
:100F300009F92A2000F006F9002000F0FDF81A2037
:100F400000F0FAF8002000F0F7F8692000F0F4F85B
:100F50002B2000F0F7F8002000F0EEF8012000F060
:100F6000EBF8002000F0E8F8A02000F0E5F82C20D5
:100F700000F0E8F84FF6FF705023A0220021009007
:100F80000846FFF760FE08BD001001402DE9FF5F35
:100F900080468A4617469B460F9D00200290CDF85A
:100FA0000080284605EBD071C1F347042046E217C4
:100FB00004EB5272D2102146E31704EB5373DB109B
:100FC000A4EBC3030BB1012300E000231A446A43DE
:100FD00092B20192A7F12000C7B20AEB0500401EB1
:100FE00083B208EB0400401E82B251464046FFF730
:100FF000F9FD002669E00C2D07D107EB47003549C4
:1010000001EB8000805D03901BE0102D05D132487C
:1010100000EB0710805D039013E0182D07D107EB5C
:1010200047002E4901EB0010805D039009E0202D60
:1010300005D12B4800EB8710805D039001E0BDE8EF
:10104000FF9F4FF000093AE01098C8B9012000FA5C
:1010500009F00399084018B1584600F064F802E01E
:101060000E9800F060F80298401CC0B202900298FE
:1010700090FBF4F104FB1100E8B90020029021E09C
:10108000012000FA09F00399084020B15A46514660
:101090004046FFF7CAFD08F101001FFA80F80098EA
:1010A000A8EB0000A04206D1DDF800800AF10100A3
:1010B0001FFA80FA06E009F1010000F0FF09B9F11A
:1010C000080FC1DB00BF701C86B20198864292DB1C
:1010D00000BFB4E7EA2400085E2900084E2F00088C
:1010E0001E4100082DE9FE4F06460F46144698465D
:1010F000DDE90D5ADDF8309010E0CDE9015ACDF868
:1011000000902278434639463046FFF73FFF284695
:1011100005EBD07106EB61018EB2641C20780028CB
:10112000EBD1BDE8FE8F10B50446201200F01CF88C
:10113000E0B200F019F810BD10B50446204600F0EA
:1011400013F810BD10B504464FF480510548FFF761
:1011500042FB204600F008F84FF480510148FFF7A9
:101160003CFB10BD0010014070B50446042114483A
:10117000FFF731FB00251BE04FF480711148FFF7AA
:101180002AFB04F0800028B14FF400710D48FFF7EE
:1011900024FB04E04FF400710A48FFF71CFB4FF4F6
:1011A00080710848FFF719FB6006040E681CC5B281
:1011B000082DE1DB04210248FFF70FFB70BD0000A2
:1011C00000140140000C014000BFFEE77047000022
:1011D00070B5002100230F22C47804B3154C246895
:1011E00004F4E064C4F5E064210AC1F10403CA40D8
:1011F000447804FA03F184781440214309010E4C29
:101200000678A155047804F01F050124AC40057848
:101210006D11AD0005F1E025C5F8004109E0047845
:1012200004F01F050124AC40044D0678761145F802
:10123000264070BD0CED00E000E400E080E100E03D
:1012400002490143024A1160704700000000FA059C
:101250000CED00E07047000029B1064A9269024394
:10126000044B9A6104E0034A92698243014B9A61FC
:10127000704700000010024030B500210022002419
:1012800000232D4D6D6805F00C0121B1042905D016
:10129000082923D105E0294D056022E0274D05608E
:1012A0001FE0254D6D6805F47012234D6D6805F43F
:1012B0008034022505EB92421CB9214D554305604F
:1012C0000BE01D4D6D6805F400351DB11C4D5543F7
:1012D000056002E0194D5543056002E0174D0560B9
:1012E00000BF00BF144D6D6805F0F0010909154DF0
:1012F0006B5C0568DD4045600F4D6D6805F4E0618D
:10130000090A104D6B5C4568DD4085600A4D6D68CB
:1013100005F46051C90A0B4D6B5C4568DD40C56042
:10132000054D6D6805F44041890B074D6B5CC56840
:10133000B5FBF3F5056130BD0010024000127A00E4
:1013400000093D001400002024000020704710B563
:1013500000F002F810BD00000CB5002001900090D4
:101360003348006840F480303149086000BF30489D
:10137000006800F4003000900198401C0190009833
:1013800018B90198B0F5A06FF1D12948006800F4B0
:10139000003010B10120009001E000200090009882
:1013A000012843D12348006840F01000214908601B
:1013B0000846006820F0030008600846006840F016
:1013C000020008601A4840681949486008464068A9
:1013D00048600846406840F48060486008464068BD
:1013E00020F47C1048600846406840F4E8104860EB
:1013F0000846006840F08070086000BF0C48006834
:1014000000F000700028F9D00948406820F003007F
:10141000074948600846406840F00200486000BF45
:101420000348406800F00C000828F9D10CBD00000A
:101430000010024000200240042808D14FF0E021B3
:10144000096941F004014FF0E022116107E04FF01B
:10145000E021096921F004014FF0E0221161704799
:101460007047000010B51348006840F001001149B2
:10147000086008464068104908400E494860084620
:1014800000680E4908400B4908600846006820F4CF
:10149000802008600846406820F4FE0048604FF451
:1014A0001F008860FFF753FF4FF000600449086099
:1014B00010BD0000001002400000FFF8FFFFF6FE24
:1014C00008ED00E010B540F22551064800F0DEF8C6
:1014D00030B1044800F096F9C4B2204600F004F898
:1014E00010BD00000050004010B5044600BF802130
:1014F000044800F0BEF80028F9D02146014800F069
:1015000086F910BD0050004010B5002440F225516E
:10151000054800F0BBF830B1034800F073F9C4B2DD
:10152000204600F003F810BD0038014010B5044615
:1015300000BF8021044800F09CF80028F9D0214623
:10154000014800F064F910BD0038014010B586B0C4
:101550000446012144F20400FFF77EFE4FF40070C0
:10156000ADF8140018208DF8170003208DF8160030
:1015700005A92248FFF752F84FF48060ADF8140037
:1015800004208DF8170005A91C48FFF747F80194BF
:101590000020ADF80800ADF80A00ADF80C00ADF879
:1015A00010000C20ADF80E0001A9154800F0BEF89F
:1015B000002240F22771124800F092F8012240F216
:1015C00025510F4800F08CF840210D4800F03CF800
:1015D00001210B4800F041F825208DF80000012082
:1015E0008DF8010003208DF8020001208DF8030022
:1015F0006846FFF7EDFD06B010BD00000008014091
:101600000038014010B540F22551064800F03EF880
:1016100030B1044800F0F6F8C4B2204600F004F8F7
:1016200010BD00000048004010B5044600BF8021F6
:10163000044800F01EF80028F9D02146014800F0C7
:10164000E6F810BD0048004001F40072B2F5007FDA
:1016500000D100BFCA430280704721B1828942F4A1
:101660000052828104E082894DF6FF731A40828124
:10167000704702460020B1F5007F00D100BF1388FB
:101680000B400BB1012000E00020704770B502460E
:10169000002400230025002040F66A16B14200D144
:1016A00000BFC1F3421501F01F03012606FA03F340
:1016B000012D02D19689334006E0022D02D1168A0F
:1016C000334001E0968A33400C12012606FA04F4F6
:1016D0001688344013B10CB1012000E0002070BD29
:1016E000F0B50346002400260025002040F66A17C6
:1016F000B94200D100BF1846C1F3421401F01F06E1
:10170000012707FA06F5012C01D10C3004E0022C68
:1017100001D1103000E014301AB107682F43076080
:1017200002E00768AF430760F0BD00002DE9F04715
:1017300086B005460E460024A24600BFA1460027FB
:10174000B08900B100BF2F462C8A4CF6FF700440D0
:10175000F08804432C82AC894EF6F3100440B08824
:1017600031890843718908430443AC81AC8A4FF640
:10177000FF400440B0890443AC8201A8FFF77CFD20
:101780001F48874202D1DDF810A001E0DDF80CA06F
:10179000A88900F4004040B10AEBCA0000EB0A102F
:1017A00031684900B0FBF1F807E00AEBCA0000EB32
:1017B0000A1031688900B0FBF1F86420B8FBF0F042
:1017C00004012009642101FB1089A88900F400406C
:1017D00040B1322000EBC900B0FBF1F000F007008F
:1017E000044308E0322000EB09106421B0FBF1F063
:1017F00000F00F0004432C8106B0BDE8F087000024
:101800000038014001468888C0F308007047C1F3E2
:1018100008028280704700BFFEE700000FB4084B4B
:1018200010B504A902AA039800F01CF8044602A906
:10183000002000F042FA204610BC5DF814FB0000C6
:10184000BB1C000802E008C8121F08C1002AFAD118
:1018500070477047002001E001C1121F002AFBD130
:10186000704700002DE9FF4F8DB00F46054600265A
:1018700006E025280BD0DDE90F1290476D1C761C81
:1018800028780028F5D111B03046BDE8F08F00244B
:10189000A246A1460122E94900E0044315F8013FB0
:1018A000203B02FA03F00842F7D128782A2810D00A
:1018B0006FF02F022878A0F13001092914D80AEB23
:1018C0008A0102EB410144F0020400EB010A6D1CA5
:1018D000F0E701CF5FEA000A03D544F40054CAF1EF
:1018E000000A44F002046D1C28782E2817D115F840
:1018F000010F44F004042A280ED06FF02F0228783C
:10190000A0F1300109290AD809EB890102EB410154
:1019100000EB01096D1CF2E757F8049B6D1C287859
:101920006C280FD006DC4C2817D068280DD06A2808
:1019300014D104E0742810D07A280FD10DE044F4BB
:1019400000140AE044F4801401E044F4401469787F
:10195000814202D104F580146D1C6D1C28786E281C
:101960001ED00CDC632830D004DC00288BD0582833
:1019700011D19FE0642867D069280CD164E07328F6
:101980002DD004DC6F2872D0702804D194E0752823
:101990006ED078286DD0DDE90F129047761C4BE1B0
:1019A000C4F30250022806D0032809D0042801CF2E
:1019B00009D0066040E101CFF117C0E900613BE1C9
:1019C00001CF068038E1067036E117F8040B8DF878
:1019D000000000208DF80100EB46012003E057F8DD
:1019E00004BB4FF0FF3061074FF0000102D40DE05F
:1019F00008F10101884649450FDA8045F8DB1BF8FC
:101A000008100029F4D108E008F10101884681425C
:101A1000FADB1BF808100029F6D1DDE90F23AAEB49
:101A200008008146214600F031F9304400EB0806F9
:101A300004E0DDE90F121BF8010B9047B8F1010833
:101A4000F7D221464846F2E00A21C4F302524FF091
:101A5000000B0891022A04D001CFC117032A09D034
:101A60000AE0FF1D27F00707F7E8020108E02CE075
:101A70001EE01FE000B2C117042A01D140B2C11715
:101A8000021E71F1000206DA0023D0EB030063EBC3
:101A900001012D2202E0220504D52B228DF82420FD
:101AA000012203E0E20701D02022F7E7904653E04D
:101AB0000A210BE0102109E010214FF0000B44F047
:101AC00004044FF00809089103E008214FF0000BCF
:101AD0000891C4F30252022A04D001CF0021032A44
:101AE00006D006E0FF1D27F00707F7E8020103E034
:101AF00080B2042A00D1C0B24FF0000822072BD5D3
:101B00002A78702A07D0DDF820C08CF0100C5CEA2F
:101B10000B0C05D00EE040228DF82420012208E0B5
:101B200050EA010306D030238DF824308DF82520AB
:101B300002229046089B83F0080353EA0B030BD163
:101B400050EA010201D1620706D530228DF8242027
:101B50004FF00108A9F101092A78582A04D038A2C7
:101B60000B9208AA0A920BE03AA2F9E75B46089AA0
:101B7000FEF742FC0B9B9B5C0A9A521E0A92137062
:101B800050EA0102F2D10A98ADEB000000F1200BFF
:101B9000600702D524F4803401E04FF00109D945F3
:101BA00002DDA9EB0B0000E0002000EB0B0141443B
:101BB0000890AAEB010AE00306D4DDE90F232146D1
:101BC000504600F063F806444FF0000908E009A908
:101BD00011F80900DDE90F12904709F10109761C9F
:101BE000C145F4DBE0030CD5DDE90F232146504667
:101BF00000F04CF8064404E0DDE90F123020904775
:101C0000761C0899481E08900029F5DC08E00A981F
:101C10000A990078491C0A91DDE90F129047761C59
:101C2000BBF10001ABF1010BF1DC21465046DDE9CF
:101C30000F2300F019F806446D1C21E60928010065
:101C40003031323334353637383961626364656632
:101C500000000000303132333435363738394142F4
:101C600043444546000000002DE9F04104460025AC
:101C70001E461746880404D405E039462020B047A4
:101C80006D1C641EF9D52846BDE8F0812DE9F041B0
:101C9000044600251E469046C80301D5302700E0C3
:101CA0002027880404D505E041463846B0476D1C1E
:101CB000641EF9D52846BDE8F0810A68531C0B6004
:101CC0001070704710B50E4800680E49B0FBF1F077
:101CD000C4B26FF00400FFF7AFFBE11704EB5171E2
:101CE000C910094A11701046007800EB4001C1EBA1
:101CF000C0104FF6FF7101EAC0000449088010BD12
:101D00000000002040420F00280000202A00002090
:101D100001460D4A12884A434FF0E0235A610022DF
:101D20009A6101221A6100BF4FF0E022106900F0B1
:101D300001021AB100F48032002AF5D000224FF0DF
:101D4000E0231A619A6170472A00002008B500203C
:101D50000090022269463B2000F072FB9DF80100D2
:101D60009DF8001000EB012000B208BD08B500206E
:101D70000090022269463D2000F062FB9DF80100C0
:101D80009DF8001000EB012000B208BD08B500204E
:101D90000090022269463F2000F052FB9DF80100AE
:101DA0009DF8001000EB012000B208BD08B500202E
:101DB000009002226946432000F042FB9DF801009A
:101DC0009DF8001000EB012000B208BD08B500200E
:101DD000009002226946452000F032FB9DF8010088
:101DE0009DF8001000EB012000B208BD08B50020EE
:101DF000009002226946472000F022FB9DF8010076
:101E00009DF8001000EB012000B208BD2DE9F04F55
:101E100089B0F948B0F90000B0F5FA7F7DDAF648EC
:101E20000088401C00B2F449088000F023FBF2480F
:101E3000B0F90000142802DC09B0BDE8F08FEF48CB
:101E40000088EF490988084400B2EC490880084638
:101E50004088EC490988084400B2E84948800846AF
:101E60008088E9490988084400B2E4498880E74845
:101E70000088E7490988084400B2E4490880084618
:101E80004088E4490988084400B2E049488008468F
:101E90008088E1490988084400B2DC498880D64836
:101EA000B0F90000B0F5FA7F3DDBD448B0F900008E
:101EB0004FF4F07190FBF1F000B2D0490880084671
:101EC000B0F902004FF4F07190FBF1F000B2CB4991
:101ED00048800846B0F904004FF4F07190FBF1F02F
:101EE00000B2C6498880C948B0F900004FF4F071CB
:101EF00090FBF1F000B2C54908800846B0F9020035
:101F00004FF4F07190FBF1F000B2C04948800846F0
:101F1000B0F904004FF4F07100E005E090FBF1F03F
:101F200000B2BA49888064E100F0A4FAB74800889A
:101F3000B7490988081A00B2B8490880B3484088F0
:101F4000B4490988081A00B2B4494880AF4880886B
:101F5000B1490988081A00B2B0498880A7480088AA
:101F6000A7490988081A00B2AC49C880A34840882C
:101F7000A4490988081A00B2A84908819F488088A6
:101F8000A1490988081A00B2A4494881A448B0F9B7
:101F90000000FEF701FA82468B46A049B1F906001F
:101FA000FEF7FAF906464FF066329E4BFEF785F9CA
:101FB000804652465B46FEF7D9F80446FEF7FDF927
:101FC00000B29649C8809648B0F90000FEF7E4F9DF
:101FD00004460D469149B1F90800FEF7DDF9824645
:101FE0004FF066328F4BFEF768F9064622462B46C5
:101FF000FEF7BCF88046FEF7E0F900B28749088199
:102000008748B0F90000FEF7C7F980468946834942
:10201000B1F90A00FEF7C0F982464FF06632814BF3
:10202000FEF74BF9064642464B46FEF79FF804463C
:10203000FEF7C3F900B2794948817B48B0F9000046
:10204000FEF7AAF904460D467449B1F90000FEF7FF
:10205000A3F980464FF06632724BFEF72EF9064622
:1020600022462B46FEF782F88246FEF7A6F900B21A
:102070006A4908806D48B0F90000FEF78DF9044602
:102080000D466649B1F90200FEF786F980464FF029
:102090006632644BFEF711F9064622462B46FEF7E0
:1020A00065F88246FEF789F900B25C4948806048CD
:1020B000B0F90000FEF770F904460D465749B1F932
:1020C0000400FEF769F980464FF06632554BFEF783
:1020D000F4F8064622462B46FEF748F88246FEF7FD
:1020E0006CF900B24D49888052480078002844D1EC
:1020F0000120504908704948008838B14749B1F972
:10210000000000F0EFF900B24749088043484088DA
:1021100038B14249B1F9020000F0E4F900B2434994
:1021200008803E48808838B13C49B1F9040000F08D
:10213000D9F900B23E4908803848C08838B13749DB
:10214000B1F9060000F0CEF900B2354908803348F5
:10215000008938B13149B1F9080000F0C3F900B283
:10216000354908802D48408938B12C49B1F90A0019
:1021700000F0B8F900B2314908802848B0F90020D1
:102180002FA104A8FFF74AFB002010214FF6FF7291
:102190000346CDE90021029004AA0F210A20FEF790
:1021A000A1FF1E48B0F9022028A104A8FFF736FBC2
:1021B000002010214FF6FF720346CDE90021029066
:1021C00004AA1E210A20FEF78DFF1448B0F904204E
:1021D00021A104A8FFF722FB002010214FF6FF7277
:1021E0000346CDE90021029004AA2D210A20FEF722
:1021F00079FF00BF20E60000660000206800002094
:1022000054000020560000205800002074000020D8
:102210005A0000205C0000205E000020A00000208A
:1022200082000020666630407C0000207E00002096
:10223000800000207A00002084000020860000201A
:1022400061636358203D2564202000006163635969
:10225000203D2564202000006163635A203D2564F1
:102260002020000008B500200090FEF7E1FA0A20C7
:10227000FFF74EFD80216B2000F0F0F86420FFF79F
:1022800047FD00F027F800BF012269466B2000F0EF
:10229000D7F89DF800004128F6D101216B2000F00D
:1022A000DDF800216C2000F0D9F801211A2000F09F
:1022B000D5F80721192000F0D1F818211B2000F0D3
:1022C000CDF810211C2000F0C9F823211D2000F0BA
:1022D000C5F808BD1FB500200390012400BF0122EE
:1022E00003A9752000F0ACF89DF80C00052801D07A
:1022F000012000E000202040D0B1002010214FF646
:10230000FF720346CDE9002102902DA201460A206A
:10231000FEF7E8FE002010214FF6FF720346CDE9DC
:10232000002102902BA23C210A20FEF7DBFE0024B4
:102330009DF80C0005283ED02B480078401C2A4907
:10234000087008460078082801DD0020087026483B
:10235000007809282AD2DFE800F005090D111519C7
:102360001D212500D2202149087023E069201F4942
:1023700008701FE068201D4908701BE0E8201B4919
:10238000087017E0E9201949087013E0E92017499F
:1023900008700FE0D220154908700BE0D1201349D6
:1023A000087007E0D0201149087003E0D2200F49DF
:1023B000087000BF00BF9DF80C0005288FD11FBD1D
:1023C000494D5520697320446574656374696E676F
:1023D0002100000031307320726573657420746FC2
:1023E00020747279210000002C0000202D000020B4
:1023F00010B5FFF7ABFC05490880FFF7B7FC0449AF
:102400000880FFF7C3FC0349088010BD5A00002074
:102410005C0000205E00002010B5FFF7C7FC0549F6
:102420000880FFF7D3FC04490880FFF7DFFC03496D
:10243000088010BD540000205600002058000020E5
:1024400070B504460D461646F2B22B4621460248A8
:102450000078FEF723FB70BD2D00002070B5044608
:102460000D462A46214602480078FEF749FB70BD1A
:102470002D00002010B5FFF7CFFFFFF7B9FF10BD0B
:1024800010B5FFF7C3FC10BD08B501210820FEF709
:10249000E3FE1020ADF800008DF8030002208DF857
:1024A000020069460348FEF7B9F810210248FEF71A
:1024B00092F908BD00100140000C0140FEF76EF8D3
:1024C0000DE00020FEF74AFB38B10548006808B966
:1024D000012000E0002002490860FFF7D1FFF0E78B
:1024E00090812142014648427047000000000000F0
:1024F00000000000000000000404040404000004C4
:10250000000014140A000000000000000000000099
:102510000A0A1F0A0A1F0A0A000000040E1505060F
:102520000C14150E0400000012150D152E2C2A1285
:1025300000000000040A0A361515291600000202E0
:10254000010000000000000000001008080404045E
:102550000404080810000204040808080808040419
:10256000020000000004150E0E150400000000001B
:102570000008083E080800000000000000000000FD
:1025800000000202010000000000003F0000000007
:102590000000000000000000000000020000002019
:1025A0001010080804040202010000000E111111AD
:1025B0001111110E00000000040604040404040EAE
:1025C000000000000E1111080402011F00000000AD
:1025D0000E11100C1010110E00000000080C0C0A57
:1025E000091F081C000000001F01010F1110110E2F
:1025F000000000000C12010D1311110E000000006C
:102600001E10080804040404000000000E11110E3E
:102610001111110E000000000E11111916100906FB
:1026200000000000000004000000000400000000A2
:102630000000000400000004040000001008040270
:10264000020408100000000000003F003F000000EE
:10265000000000000204081010080402000000003E
:102660000E11110804040004000000001C22292D92
:102670002D1D221C0000000004040C0A0A1E123347
:10268000000000000F12120E1212120F00000000C4
:102690001E1101010101110E000000000F121212A3
:1026A0001212120F000000001F120A0E0A02121F5F
:1026B000000000001F120A0E0A02020700000000BC
:1026C0001C1201013911120C000000003312121EFD
:1026D00012121233000000001F0404040404041F3B
:1026E000000000003E080808080808080907000064
:1026F00037120A060A12123700000000070202020F
:102700000202223F000000003B1B1B1B1515153564
:10271000000000003B1216161A1A121700000000E3
:102720000E1111111111110E000000000F12120EE6
:1027300002020207000000000E1111111117190EFC
:10274000180000000F12120E0A12123700000000CB
:102750001E1101060810110F000000001F150404CF
:102760000404040E00000000331212121212120CA4
:10277000000000003312120A0A0C040400000000DA
:10278000151515150E0A0A0A000000001B0A0A0496
:10279000040A0A1B000000001B0A0A0A0404040EB3
:1027A000000000001F0908040402121F00001C049E
:1027B00004040404040404041C00000202040404CD
:1027C0000808081010000E0808080808080808087B
:1027D0000E00040A000000000000000000000000DD
:1027E0000000000000000000003F020400000000A4
:1027F00000000000000000000000000C121C123C51
:10280000000000030202020E1212120E000000006D
:102810000000001C1202120C000000181010101C06
:102820001212123C000000000000000C121E021CDC
:10283000000000182404041E0404041E000000000C
:102840000000003C120C021C221C00030202020EBB
:102850001212123700000004040000060404040EE3
:10286000000000080800000C08080808080700031A
:102870000202021A0A060A130000000704040404F4
:102880000404041F000000000000000F15151515BA
:10289000000000000000000F1212123700000000BC
:1028A0000000000C1212120C000000000000000FCB
:1028B0001212120E020700000000001C1212121C5D
:1028C000103800000000001B060202070000000094
:1028D0000000001E020C101E000000000004041E78
:1028E0000404041C000000000000001B1212123C33
:1028F000000000000000001B0A0A040400000000A1
:1029000000000015150E0A0A000000000000001B60
:102910000A040A1B000000000000003312120C0819
:10292000040300000000001E0804041E0000180834
:102930000808080C0808080818000808080808080B
:102940000808080808080604040404080404040429
:102950000600160900000000000000000000000052
:102960000000000000000000000000000000000067
:1029700000080808080808080000181800000048A7
:102980006C241200000000000000000000000000A5
:10299000002424247F1212127F1212120000000061
:1029A000081C2A2A0A0C1828282A2A1C08080000B1
:1029B0000022251515152A585454542200000000F1
:1029C000000C1212120A76252911916E00000006E1
:1029D00006040300000000000000000000000040AA
:1029E00020101008080808080810102040000002F5
:1029F000040808101010101010080804020000004D
:102A0000000008086B1C1C6B080800000000000098
:102A10000000080808087F080808080000000000F7
:102A20000000000000000000000006060403000093
:102A3000000000000000FE00000000000000000098
:102A4000000000000000000000000606000000007A
:102A500080404020201010080804040202000000FA
:102A60000018244242424242424224180000000020
:102A700000080E08080808080808083E00000000C2
:102A8000003C4242422020100804427E0000000028
:102A9000003C4242201820404042221C000000001E
:102AA00000203028242422227E20207800000000EC
:102AB000007E0202021A26404042221C0000000052
:102AC00000382402021A2642424224180000000064
:102AD000007E2222101008080808080800000000E4
:102AE000003C4242422418244242423C0000000082
:102AF00000182442424264584040241C0000000058
:102B00000000000018180000000018180000000065
:102B10000000000000080000000000080804000099
:102B200000402010080402040810204000000000AB
:102B3000000000007F0000007F0000000000000097
:102B400000020408102040201008040200000000C9
:102B5000003C4242464020101000181800000000BF
:102B6000001C225A555555552D42221C00000000CC
:102B7000000808181414243C224242E70000000018
:102B8000001F2222221E22424242221F0000000079
:102B9000007C4242010101010142221C00000000B0
:102BA000001F2242424242424242221F00000000D5
:102BB000003F4212121E12120242423F0000000069
:102BC000003F4212121E1212020202070000000011
:102BD000003C2222010101712122221C0000000080
:102BE00000E7424242427E42424242E70000000089
:102BF000003E0808080808080808083E0000000011
:102C0000007C10101010101010101010110F000088
:102C1000007722120A0E0A12122222770000000008
:102C200000070202020202020202427F00000000CC
:102C30000077363636362A2A2A2A2A6B0000000008
:102C400000E346464A4A5252526262470000000080
:102C5000001C2241414141414141221C0000000031
:102C6000003F424242423E020202020700000000D0
:102C7000001C2241414141414D53321C6000000083
:102C8000003F4242423E1212222242C70000000090
:102C9000007C4242020418204042423E00000000F4
:102CA000007F4908080808080808081C0000000000
:102CB00000E74242424242424242423C000000009F
:102CC00000E74242222424141418080800000000DF
:102CD000006B49494949555536222222000000001F
:102CE00000E7422424181818242442E700000000BA
:102CF00000772222141408080808081C00000000AD
:102D0000007E2120101008040442423F0000007899
:102D100008080808080808080808080878000000DB
:102D20000202040408080810102020204040001E61
:102D30001010101010101010101010101E0000387D
:102D4000440000000000000000000000000000003F
:102D500000000000000000000000000000FF00066E
:102D6000080000000000000000000000000000005B
:102D700000000000003C4278444242FC0000000099
:102D800000030202021A26424242261A00000000F4
:102D90000000000000384402020244380000000035
:102DA0000060404040784442424264D80000000045
:102DB00000000000003C427E0202423C0000000095
:102DC00000F08808087E08080808083E0000000097
:102DD00000000000007C22221C023C42423C000019
:102DE00000030202023A4642424242E7000000006B
:102DF000000C0C00000E08080808083E0000000047
:102E0000003030000038202020202020221E00002A
:102E1000000302020272120A16122277000000005A
:102E2000000E0808080808080808083E000000000E
:102E300000000000007F9292929292B70000000082
:102E400000000000003B4642424242E70000000012
:102E500000000000003C42424242423C00000000B0
:102E600000000000001B26424242221E0207000012
:102E700000000000007844424242447840E00000F4
:102E80000000000000774C040404041F0000000050
:102E900000000000007C42023C40423E0000000076
:102EA00000000008083E080808080830000000007C
:102EB0000000000000634242424262DC0000000069
:102EC0000000000000E7422424140808000000006D
:102ED0000000000000EB4949555522220000000087
:102EE00000000000007624181818246E000000006E
:102EF0000000000000E7422424141808080700001E
:102F000000000000007E22100808447E000000C07F
:102F1000202020202010202020202020C000101061
:102F200010101010101010101010101010100006BB
:102F300008080808081008080808080806000C32E5
:102F4000C2000000000000000000000000000000BF
:102F50000000000000000000000000000000000071
:102F60000000000000000000000000000000000061
:102F70000000000000000000000000000000000051
:102F80000000000000006000600060006000600061
:102F900060006000400020002000200000000000D1
:102FA0000000600060006000000000000000000001
:102FB00000006006600630039801880044000000AD
:102FC0000000000000000000000000000000000001
:102FD00000000000000000000000000000000000F1
:102FE0000000000000001002100210021002FE0794
:102FF000FE0708020801080108010801FE07FE0794
:1030000004010401040104010000000000000000AC
:103010000000000040004000F00158034C03CC03C6
:103020004C0058007000E000C001C00140034C0398
:103030005C034C034801F000400040000000000029
:103040000000000000000E010A01910091009100B3
:10305000510051003A00AE03A0025004500448044D
:1030600048044804840284030000000000000000BB
:1030700000000000000038006C006C006C006C0068
:103080006C002C0098071C011A0133013301630105
:10309000E300C308C6093C07000000000000000070
:1030A00000000C001C0010001000080004000000CC
:1030B0000000000000000000000000000000000010
:1030C0000000000000000000000000000000000000
:1030D0000000000400020001800080004000400069
:1030E00020002000200020002000200020004000C0
:1030F0004000800080000001000200040000000089
:103100000000020004000800100010002000200051
:1031100040004000400040004000400040002000CF
:103120002000100010000800040002000000000051
:10313000000000000000000000004000C00040004F
:10314000460C4E0FD001F0015E0F460C40004000CF
:10315000400000000000000000000000000000002F
:1031600000000000000000000000000040004000DF
:10317000400040004000FE0F400040004000400082
:1031800040000000000000000000000000000000FF
:10319000000000000000000000000000000000002F
:1031A000000000000000000000000000000000001F
:1031B00000000C001C0010001000080004000000BB
:1031C00000000000000000000000000000000000FF
:1031D000000000000000FE070000000000000000EA
:1031E00000000000000000000000000000000000DF
:1031F00000000000000000000000000000000000CF
:1032000000000000000000000000000000000000BE
:1032100000001C001C001C0000000000000000005A
:10322000000000040006000200030001000180000D
:1032300080004000400060002000200010001000CE
:10324000080008000C000400060002000000000056
:103250000000000000000000F00098010C030C03C7
:1032600006060606060606060606060606060606FE
:103270000C030C039801F0000000000000000000A7
:10328000000000000000000040007C0060006000C2
:10329000600060006000600060006000600060002E
:1032A000600060006000FC030000000000000000FF
:1032B0000000000000000000F80084010203060383
:1032C0000603000300018001C00060002000100020
:1032D000080204020602FE030000000000000000D5
:1032E00000000000000000007800C6008601860192
:1032F00080018001C0007000800100010003000314
:10330000060306038601F80000000000000000002C
:10331000000000000000000080018001C001A00149
:10332000A00190018801880184018201FE0F8001C3
:10333000800180018001E007000000000000000023
:103340000000000000000000FC0304000400040072
:1033500004000400F4008C010403000300030603CE
:10336000060382018401F800000000000000000054
:103370000000000000000000E00118030C030C0036
:1033800004000600E60116030E06060606060606FB
:1033900004060C021803F00000000000000000000A
:1033A0000000000000000000F8070C060402040101
:1033B00000010001800080004000400040006000EB
:1033C000600060006000600000000000000000007D
:1033D0000000000000000000F8010C0306060606CD
:1033E00006060C021C03F000C8010C0306060606C4
:1033F000060606060C03F0010000000000000000B5
:103400000000000000000000F0000C010C030602A8
:1034100006060606060606078C0678060006000362
:1034200000030C018C017800000000000000000087
:10343000000000000000000000000000000000008C
:103440000000E000E000E0000000000000000000DC
:103450000000E000E000E0000000000000000000CC
:10346000000000000000000000000000000000005C
:10347000000060006000000000000000000000008C
:1034800000000000600060004000200020000000FC
:103490000000000000000004000200018000400065
:1034A0002000100008000400080010002000400068
:1034B0008000000100020004000000000000000085
:1034C00000000000000000000000000000000000FC
:1034D0000000FE07000000000000FE0700000000E2
:1034E00000000000000000000000000000000000DC
:1034F0000000000000000400080010002000400050
:103500008000000100020004000200018000400071
:10351000200010000800040000000000000000006F
:103520000000000000000000E0031806040C040C7A
:103530000C0C0C0C00078001400040004000000013
:103540000000E000E000E0000000000000000000DB
:10355000000000000000E00018030C02CC05640528
:103560006605A605B604B604B604B604B602E401C0
:103570000C040C021803F000000000000000000022
:103580000000000000000000600060005000D0005B
:1035900090009000880088010801F80104030403EA
:1035A0000402020202060F0F0000000000000000EB
:1035B0000000000000000000FE008C030C030C0360
:1035C0000C030C038C01FC000C030C020C060C0613
:1035D0000C060C060C03FE010000000000000000B9
:1035E0000000000000000000E00318030C060C04BB
:1035F0000404060006000600060006000600060495
:103600000C040C021803F000000000000000000091
:1036100000000000000000007F008C010C030C0380
:103620000C060C060C060C060C060C060C060C060A
:103630000C030C038C017F00000000000000000060
:103640000000000000000000FF030603060406045B
:10365000060086008600FE008600860086000600C2
:10366000060406040602FF0300000000000000003C
:103670000000000000000000FF030603060406042B
:10368000060086008600FE00860086008600060092
:103690000600060006001F000000000000000000F9
:1036A0000000000000000000F00018010C020C02F5
:1036B00004020600060006000600C60F0603060305
:1036C0000C030C031803F0000000000000000000D1
:1036D00000000000000000000F0F060606060606A8
:1036E000060606060606FE07060606060606060681
:1036F0000606060606060F0F000000000000000088
:103700000000000000000000FC036000600060009A
:1037100060006000600060006000600060006000A9
:10372000600060006000FC0300000000000000007A
:103730000000000000000000F807C000C000C0004A
:10374000C000C000C000C000C000C000C000C00079
:10375000C000C000C000C000C60066003C00000001
:103760000000000000000000CF038601C6004600F4
:103770002600160036002E006E004600C6008600A9
:103780008601060106038F0700000000000000000C
:1037900000000000000000001F00060006000600F8
:1037A00006000600060006000600060006000600E9
:1037B000060406040602FF030000000000000000EB
:1037C00000000000000000000707860386038E0348
:1037D0008E034E034E034A035A035A033A0332033D
:1037E00032033203120387070000000000000000CC
:1037F00000000000000000008E0F0C021C021C02E2
:1038000034023402640264024402C4028402840367
:103810008403040304031F020000000000000000F2
:103820000000000000000000F00098010C030C02F2
:103830000606060606060606060606060606060628
:103840000C020C039801F0000000000000000000D2
:103850000000000000000000FF0006030606060648
:103860000606060606068603FE000600060006009B
:103870000600060006001F00000000000000000017
:103880000000000000000000F00098010C030C0292
:103890000606060606060606060606060606760658
:1038A0004C02CC039801F0008007000300000000E8
:1038B0000000000000000000FF01060306060606E7
:1038C000060606060603FE004600C60086008601C0
:1038D0000603060306060F0E0000000000000000AD
:1038E0000000000000000000F8020C0306020602BF
:1038F00006000E003C00F800E0038003000702060B
:10390000020606060C03F0010000000000000000A3
:103910000000000000000000FE076204610861086A
:103920006000600060006000600060006000600097
:10393000600060006000F80100000000000000006E
:1039400000000000000000001E070C020C020C0228
:103950000C020C020C020C020C020C020C020C02F7
:103960000C020C021801F000000000000000000032
:1039700000000000000000000F070602040104011F
:103980000C010C018800880098009800500050003D
:103990007000300020002000000000000000000047
:1039A0000000000000000000F70E6204420446041C
:1039B000460464026402E402E4029C029C01980151
:1039C00098018801880088000000000000000000C5
:1039D00000000000000000009E070C010801180113
:1039E0009000B0006000200060006000D0009000F7
:1039F0008801080104038E07000000000000000099
:103A000000000000000000000F0F060404020C027A
:103A100008011801B800B00070006000600060008C
:103A2000600060006000F80100000000000000007D
:103A30000000000000000000FC070C020603020169
:103A4000800180004000400020002000100018008D
:103A500008040C040402FE03000000000000000043
:103A60000000E003200020002000200020002000B3
:103A70002000200020002000200020002000200046
:103A800020002000200020002000E00300000000B3
:103A900000000000000004000400080008001000FE
:103AA000100010002000200040004000C0008000F6
:103AB000800000010001000200020002000400007A
:103AC00000007C00400040004000400040004000FA
:103AD00040004000400040004000400040004000E6
:103AE000400040004000400040007C00000000001A
:103AF00060009000080100000000000000000000CD
:103B000000000000000000000000000000000000B5
:103B100000000000000000000000000000000000A5
:103B20000000000000000000000000000000000095
:103B30000000000000000000000000000000000085
:103B4000000000000000000000000000FF0F000067
:103B500000001800600000000000000000000000ED
:103B60000000000000000000000000000000000055
:103B70000000000000000000000000000000000045
:103B80000000000000000000000000000000000035
:103B90000000F0010C030C030003E0031C030E0300
:103BA000060306038E0B7C0E0000000000000000E0
:103BB00000000000000008000E000C000C000C00CB
:103BC0000C00CC013C031C060C060C060C060C0673
:103BD0000C060C021C03E4010000000000000000C1
:103BE00000000000000000000000000000000000D5
:103BF0000000F0008C018C01860106000600060022
:103C000006020C020C01F0000000000000000000A1
:103C10000000000000000002C003000300030003D6
:103C2000000378038C030C03060306030603060354
:103C3000060304038C077801000000000000000068
:103C40000000000000000000000000000000000074
:103C50000000E001180308020C060C06FC070C002B
:103C60000C0018041802E001000000000000000031
:103C70000000000000000000C003600630063000B5
:103C80003000FE01300030003000300030003000E5
:103C9000300030003000FC01000000000000000097
:103CA0000000000000000000000000000000000014
:103CB0000000F007D8068C018C018C019801F800F7
:103CC0000C00FC00CC03060306038E03F800000082
:103CD00000000000000008000E000C000C000C00AA
:103CE0000C00EC011C030C030C030C030C030C0371
:103CF0000C030C030C039E070000000000000000F2
:103D000000000000000000006000600000000000F3
:103D100040007C00600060006000600060006000A7
:103D2000600060006000FC03000000000000000074
:103D30000000000000000000C001C0010000000001
:103D40000001F0018001800180018001800180017B
:103D500080018001800180018001CC007C00000096
:103D600000000000000008000E000C000C000C0019
:103D70000C008C038C008C004C006C005C008C00F0
:103D80008C010C010C039E070000000000000000E5
:103D900000000000000040007C0060006000600047
:103DA0006000600060006000600060006000600013
:103DB000600060006000FC030000000000000000E4
:103DC00000000000000000000000000000000000F3
:103DD00000003707EE066606660666066606660695
:103DE000660666066606FF0F000000000000000081
:103DF00000000000000000000000000000000000C3
:103E00000000EE011C030C030C030C030C030C0359
:103E10000C030C030C039E070000000000000000D0
:103E20000000000000000000000000000000000092
:103E30000000F00098010C030606060606060606BA
:103E400006060C030C03F000000000000000000058
:103E50000000000000000000000000000000000062
:103E60000000EE011C030C060C060C060C060C06EA
:103E70000C060C031C03EC010C000C003E000000BF
:103E80000000000000000000000000000000000032
:103E9000000078028C030C030603060306030603E6
:103EA000060304038C03780300030003C00700002B
:103EB0000000000000000000000000000000000002
:103EC00000009F0358063806180018001800180054
:103ED000180018001800FF0000000000000000009B
:103EE00000000000000000000000000000000000D2
:103EF0000000F0031C030C020C023800F000C003A9
:103F0000040304038C03FC01000000000000000017
:103F10000000000000000000000020002000300031
:103F20003000FE0130003000300030003000300042
:103F3000300030023002E00100000000000000000C
:103F40000000000000000000000000000000000071
:103F500008028E030C030C030C030C030C030C036C
:103F60000C030C039C077801000000000000000017
:103F70000000000000000000000000000000000041
:103F800000001E070C020801080118019000B00093
:103F9000B000600060002000000000000000000091
:103FA0000000000000000000000000000000000011
:103FB0000000F70E6204460464026402EC029C01F5
:103FC000980198019801080000000000000000001E
:103FD00000000000000000000000000000000000E1
:103FE0000000BC0718011001B00060006000E00094
:103FF0009000080108039E07000000000000000078
:1040000000000000000000000000000000000000B0
:1040100000009E0708010801080190009000B00010
:104020006000600060002000200024001C000000F0
:104030000000000000000000000000000000000080
:104040000000FC018401C400440060002000300036
:10405000180208020C03FC01000000000000000030
:10406000000000038000800080008000800080004D
:104070008000800040002000400080008000800020
:10408000800080008000800080000003000040006D
:104090004000400040004000400040004000400020
:1040A0004000400040004000400040004000400010
:1040B0004000400040004000400040004000000040
:1040C00000000C0010001000100010001000100084
:1040D0001000100020004000200010001000100010
:1040E000100010001000100010000C000000000074
:1040F0001C002204C2048003000000000000000035
:1041000000000000000000000000000000000000AF
:10411000000000000000000000000000000000009F
:10412000000000000000000000000000000000008F
:10413000000000000000000000000000000000007F
:10414000000000000000000000000000000000006F
:10415000000000000000000000000000000000005F
:104160000000000000000000C001C001C001C0014B
:10417000C001C001C001800080008000800080007C
:104180008000800000000000000000008001C003EB
:10419000C0038001000000000000000000000000DB
:1041A00000000000E01CE01CF01E700E3807180331
:1041B0000801840000000000000000000000000072
:1041C00000000000000000000000000000000000EF
:1041D00000000000000000000000000000000000DF
:1041E000000000000000000000002010201020103F
:1041F00020102010FE7FFE7F100810081008100805
:10420000100810081008FE7FFE7F08040804080448
:104210000804080400000000000000000000000086
:1042200000000000000000010001C007601910310B
:1042300018311839183938017001E001C0038007BE
:10424000000F001D003900311C311C310C310C11E4
:10425000180DE0070001000100010000000000004F
:10426000000000000000000000001C103618630869
:10427000630C63046304630263026301361D9C37AD
:104280008022806340634063206320633063102298
:104290001836081C000000000000000000000000AC
:1042A00000000000000000000000F00098018C01F8
:1042B0008C018C018C018C00CC007800183E1C080D
:1042C0003608320863046304C304C303834306430C
:1042D0008E26781C00000000000000000000000096
:1042E000000000001C003C003C00300030001000CA
:1042F0000C000600000000000000000000000000AC
:1043000000000000000000000000000000000000AD
:10431000000000000000000000000000000000009D
:10432000000000000040002000100008000C000405
:10433000000600030003000380018001800180016A
:10434000800180018001800100030003000300065A
:104350000006000C000800100020004000000000D3
:1043600000000000020004000800100030002000DF
:104370006000C000C000C000800180018001800199
:104380008001800180018001C000C000C000600089
:10439000600030001000080004000200000000006F
:1043A000000000000000000000000000000000010C
:1043B0008003800300011C713C79783DC007000137
:1043C000C007783D3C791C710001800380038001A7
:1043D00000000000000000000000000000000000DD
:1043E00000000000000000000000000000000000CD
:1043F0000001000100010001000100010001FC7F3B
:1044000000010001000100010001000100010000A5
:10441000000000000000000000000000000000009C
:10442000000000000000000000000000000000008C
:10443000000000000000000000000000000000007C
:1044400000000000000000000000000000001C0050
:104450003C003C003000300010000C000600000062
:10446000000000000000000000000000000000004C
:104470000000000000000000000000000000FE7FBF
:10448000000000000000000000000000000000002C
:10449000000000000000000000000000000000001C
:1044A000000000000000000000000000000000000C
:1044B00000000000000000000000000000000000FC
:1044C00000000000000000000000000018003C0098
:1044D0003C00180000000000000000000000000088
:1044E00000000000004000600020003000100018B4
:1044F0000008000C00040006000200030001800117
:104500008000C00040006000200030001000180053
:1045100008000C000400060002000000000000007B
:1045200000000000000000000000C007600C301810
:104530001830183018200C600C600C600C600C6097
:104540000C600C600C600C601820183018303018AB
:10455000600CC00700000000000000000000000028
:104560000000000000000000000000018001F801D0
:104570008001800180018001800180018001800133
:104580008001800180018001800180018001800123
:10459000C003F81F00000000000000000000000041
:1045A00000000000000000000000E007101C0818D8
:1045B000043004300C300C300030001800080004C7
:1045C000000200018000400020201020082004305C
:1045D000FC1FFC1F000000000000000000000000A5
:1045E00000000000000000000000E003180E0C0CAA
:1045F0000C180C180C180018000C0006C003000E54
:1046000000180010003000300C300C300C100C186A
:10461000180CE00300000000000000000000000093
:1046200000000000000000000000000C000E000E62
:10463000000F800E800E400E600E200E100E100E29
:10464000080E040E040EFE7F000E000E000E000E7B
:10465000000E000EC07F00000000000000000000FF
:1046600000000000000000000000F03FF03F1000DC
:104670001000100008000800C807280C18180810BF
:1046800000300030003000300C300C3004180418BA
:10469000080CF00300000000000000000000000013
:1046A00000000000000000000000800FC01020305B
:1046B00010301800180008000C008C0F6C183C30EB
:1046C0001C600C600C600C600C60186018203030AE
:1046D0006018C0070000000000000000000000009B
:1046E00000000000000000000000F83FF83F1C1030
:1046F0000C08040804040004000200020001000188
:104700000001800080008000C000C000C000C00028
:10471000C000C00000000000000000000000000019
:1047200000000000000000000000E007300C181836
:104730000C300C300C301C3038187008E007B00713
:10474000180E0C1C063806300630063006300C18E1
:10475000180CE00300000000000000000000000052
:1047600000000000000000000000E00318040C0836
:104770000C180610063006300630063006380C3CA1
:104780001836F03100300018001800180C0C0C0618
:104790000C03F00100000000000000000000000019
:1047A0000000000000000000000000000000000009
:1047B00000000000000000008001C003C003800171
:1047C0000000000000000000000000008001C003A5
:1047D000C003800100000000000000000000000095
:1047E00000000000000000000000000000000000C9
:1047F0000000000000000000C000C0000000000039
:1048000000000000000000000000000000000000A8
:10481000C000C00080008000400040000000000098
:10482000000000000000000000200010000800044C
:10483000000600038001C0006000300018000C007A
:10484000180030006000C000800100030006000472
:104850000008001000200000000000000000000020
:104860000000000000000000000000000000000048
:104870000000000000000000FE7F000000000000BB
:1048800000000000FE7F00000000000000000000AB
:104890000000000000000000000000000000000018
:1048A00000000000000000000400080010002000CC
:1048B0006000C000800100030006000C00180030FA
:1048C0000018000C000600038001C00060002000FA
:1048D00010000800040000000000000000000000BC
:1048E0000000000000000000C00730180830086019
:1048F0000C601C601C601C600030001C0006000185
:104900008000800080008000000000008001C00363
:10491000C003800100000000000000000000000053
:1049200000000000000000000000C0076018103008
:1049300018200C2F8C4D864CC64CC64C664C6644D9
:104940006644662666266615CC1C0C400820183086
:104950003018C00700000000000000000000000048
:1049600000000000000000000001C001C001C00103
:1049700040016003200320032003300610061006C8
:104980001006F80F080C080C080C0C0C041804187E
:1049900006181F7C0000000000000000000000005E
:1049A00000000000000000000000FE07181C18387E
:1049B00018301830183018301818180CF807181854
:1049C00018301820186018601860186018601830C7
:1049D0001818FE0F0000000000000000000000009A
:1049E00000000000000000000000C0276038103008
:1049F00018200C400C4004000600060006000600CB
:104A000006000600060006000C400C400C20183082
:104A10003018C00700000000000000000000000087
:104A200000000000000000000000FE03180E18182F
:104A30001830183018301860186018601860186046
:104A4000186018601860186018301830181018189E
:104A5000180EFE030000000000000000000000002F
:104A600000000000000000000000FE3F1830182089
:104A700018601840180018081808180CF80F180CBF
:104A800018081808180018001800184018401820B6
:104A90001830FE3F00000000000000000000000091
:104AA00000000000000000000000FE7F18701840A9
:104AB00018C018801800181018101818F81F1818A7
:104AC0001810181018001800180018001800180006
:104AD00018007E0000000000000000000000000040
:104AE00000000000000000000000C013701C101047
:104AF00018100C200C20040006000600060006001A
:104B0000060006FC063006300C300C301830183029
:104B10003008C00700000000000000000000000096
:104B2000000000000000000000003F7E0C180C1880
:104B30000C180C180C180C180C180C180C18FC1F5E
:104B40000C180C180C180C180C180C180C180C1845
:104B50000C183F7E00000000000000000000000074
:104B600000000000000000000000F81F800180012C
:104B7000800180018001800180018001800180012D
:104B8000800180018001800180018001800180011D
:104B90008001F81F0000000000000000000000007D
:104BA00000000000000000000000E07F000600069A
:104BB00000060006000600060006000600060006C5
:104BC00000060006000600060006000600060006B5
:104BD0000006000600060E060E038E01FC00000013
:104BE000000000000000000000007E7C181818087B
:104BF000180418061802180198019801D801B80382
:104C0000380318071806180E180C181C1818183036
:104C100018307EFC000000000000000000000000D2
:104C2000000000000000000000007E0018001800D6
:104C300018001800180018001800180018001800B4
:104C40001800180018001800180018401840182004
:104C50001830FE3F000000000000000000000000CF
:104C6000000000000000000000001FF81C381C3885
:104C70001C381C3C343434343434343674326432AA
:104C8000643264326431C431C431C431C430C4309C
:104C900084309FFC000000000000000000000000C5
:104CA000000000000000000000001F7C1C103C10F1
:104CB0003410341074106410E410C410C411841142
:104CC0008413041304170416041E041C041C041C7F
:104CD00004181F1800000000000000000000000081
:104CE00000000000000000000000C003300C181895
:104CF00008100C300C300660066006600660066026
:104D000006600660066006600C200C30081018185B
:104D1000300CC00300000000000000000000000094
:104D200000000000000000000000FE0F18181830FE
:104D30001860186018601860186018301818F80F9C
:104D400018001800180018001800180018001800A3
:104D500018007E00000000000000000000000000BD
:104D600000000000000000000000C003300C181814
:104D70000C100C300C2006600660066006600660B1
:104D80000660066006600660E4612C331C3218166B
:104D9000300EC007004C007C00380000000000000E
:104DA00000000000000000000000FE07181C18387A
:104DB00018301830183018301818180CF8079803E5
:104DC0001803180718061806180E180C180C181CCB
:104DD00018187E78000000000000000000000000AD
:104DE00000000000000000000000E027303818300C
:104DF0000C200C200C000C0018007800E003800F41
:104E0000001E003800700060046004600860183004
:104E10003818C80F0000000000000000000000006B
:104E200000000000000000000000FC3F8C218461B5
:104E300082418241800180018001800180018001E6
:104E4000800180018001800180018001800180015A
:104E50008001E007000000000000000000000000EA
:104E6000000000000000000000003F7C0C100C104F
:104E70000C100C100C100C100C100C100C100C1052
:104E80000C100C100C100C100C100C100C1008084E
:104E90003804E003000000000000000000000000F3
:104EA000000000000000000000003EF8182018205C
:104EB0001820301030103010301060086008600882
:104EC000E00CC004C004C00480038003800380039E
:104ED00000010001000000000000000000000000D0
:104EE00000000000000000000000DFF38661862162
:104EF00086218C210C218C238C138C138C134C1346
:104F000058125816580E380E380E380E300C100441
:104F10001004100400000000000000000000000069
:104F2000000000000000000000007E3E1808380865
:104F30003004300470026002E001C001C001800151
:104F400080034003400720062006100C100C0818B0
:104F500008183E7C00000000000000000000000077
:104F6000000000000000000000007E7C1C101810F3
:104F700018083008300C700460046002C002C002DF
:104F8000C0018001800180018001800180018001D9
:104F90008001E007000000000000000000000000A9
:104FA00000000000000000000000F83F181808187A
:104FB000040C040E00060007000380038001C001FA
:104FC000C000E000600070003000382018201C1085
:104FD0000C18FE1F00000000000000000000000090
:104FE00000000000C03F4000400040004000400082
:104FF00040004000400040004000400040004000B1
:1050000040004000400040004000400040004000A0
:105010004000400040004000C03F00000000000091
:105020000000000000000000080018001800100038
:1050300030002000600060004000C000800080015F
:105040008001000100030002000600060004000CBD
:1050500000080018001800100030002000000000B8
:1050600000000000FC030002000200020002000237
:105070000002000200020002000200020002000220
:105080000002000200020002000200020002000210
:105090000002000200020002FC0300000000000009
:1050A000000000008007C00620081010000000006B
:1050B00000000000000000000000000000000000F0
:1050C00000000000000000000000000000000000E0
:1050D00000000000000000000000000000000000D0
:1050E00000000000000000000000000000000000C0
:1050F00000000000000000000000000000000000B0
:10510000000000000000000000000000000000009F
:10511000000000000000000000000000FFFF000091
:10512000000000007800C000000100000000000046
:10513000000000000000000000000000000000006F
:10514000000000000000000000000000000000005F
:10515000000000000000000000000000000000004F
:10516000000000000000000000000000000000003F
:105170000000000000000000F00318060C0C0C0CEE
:10518000000C800F700C1C0C0C0C060C060C064C52
:105190000C4FF83800000000000000000000000084
:1051A000000000000000000010001E0018001800A1
:1051B0001800180018001800180FD8183830386078
:1051C000186018601860186018601860182038306F
:1051D0007818C80700000000000000000000000070
:1051E00000000000000000000000000000000000BF
:1051F0000000000000000000C007700C181818180C
:105200000C180C000C000C000C000C2018201810BE
:105210003008C0070000000000000000000000008F
:1052200000000000000000000010001E0018001820
:105230000018001800180018E01B301C1818181867
:105240000C180C180C180C180C180C180818181C32
:10525000307AE009000000000000000000000000BB
:10526000000000000000000000000000000000003E
:105270000000000000000000C007300C18180810E3
:105280000C300C30FC3F0C000C000C0018201810E7
:105290007018C007000000000000000000000000BF
:1052A00000000000000000000000003E80C380C03D
:1052B000C0C0C000C000C000FC1FC000C000C000D3
:1052C000C000C000C000C000C000C000C000C000DE
:1052D000C000F80F00000000000000000000000007
:1052E00000000000000000000000000000000000BE
:1052F0000000000000000000C077306C1018181883
:10530000181818181018300CF00718001800F00FB3
:10531000F03F08700C600C600C603838E00F000043
:10532000000000000000000010001E00180018001F
:105330001800180018001800980FD81838301830C6
:10534000183018301830183018301830183018301D
:1053500018307EFC0000000000000000000000008B
:1053600000000000000000000000800380038003B4
:105370000000000000000001F801800180018001B0
:105380008001800180018001800180018001800115
:105390008001F81F00000000000000000000000075
:1053A0000000000000000000000000380038003855
:1053B0000000000000000010801F001800180018F6
:1053C000001800180018001800180018001800181D
:1053D0000018001800180018180C1806F003000038
:1053E000000000000000000010001E00180018005F
:1053F0001800180018001800183E180C180618039A
:1054000018019801D801380318071806180C181C41
:1054100018187E7C00000000000000000000000062
:1054200000000000000000000001F8018001800180
:105430008001800180018001800180018001800164
:105440008001800180018001800180018001800154
:105450008001F81F000000000000000000000000B4
:10546000000000000000000000000000000000003C
:105470000000000000000800EE1C9C338C318C31D1
:105480008C318C318C318C318C318C318C318C3134
:105490008C31DE7B000000000000000000000000F6
:1054A00000000000000000000000000000000000FC
:1054B00000000000000010001E0FD818383018300F
:1054C000183018301830183018301830183018309C
:1054D00018307EFC0000000000000000000000000A
:1054E00000000000000000000000000000000000BC
:1054F0000000000000000000C007701C10301830D1
:105500000C600C600C600C600C600C601830183083
:105510003018C0070000000000000000000000007C
:10552000000000000000000000000000000000007B
:1055300000000000000010009E0F5818383018209E
:1055400018601860186018601860186018303830DB
:105550007818980718001800180018007E0000003E
:10556000000000000000000000000000000000003B
:105570000000000000000000C023303C1838183044
:105580000C300C300C300C300C300C30083018382B
:10559000303CE033003000300030003000FC0000D0
:1055A00000000000000000000000000000000000FB
:1055B00000000000000060007E3C60666061E0006A
:1055C000E00060006000600060006000600060005B
:1055D0006000FE0700000000000000000000000066
:1055E00000000000000000000000000000000000BB
:1055F0000000000000000000E027303818301820BC
:1056000018007000E003800F001C043004300C30E0
:105610001C18EC0F0000000000000000000000005B
:1056200000000000000000000000000000008000FA
:1056300080008000C000E000FC1FC000C000C0006F
:10564000C000C000C000C000C000C000C020C0201A
:105650008011000F000000000000000000000000AA
:10566000000000000000000000000000000000003A
:1056700000000000000010201E3C183018301830C8
:1056800018301830183018301830183018301838D2
:1056900030F4E013000000000000000000000000F3
:1056A00000000000000000000000000000000000FA
:1056B00000000000000000007E3C181818083808A0
:1056C00030043004700260026002E001C001C001D9
:1056D000C00080000000000000000000000000008A
:1056E00000000000000000000000000000000000BA
:1056F0000000000000000000DFF78E630C238C2305
:105700008C239813981358165816700E700E700E3E
:105710002004200400000000000000000000000041
:105720000000000000000000000000000000000079
:105730000000000000000000FC3E70087004E0045F
:10574000C002C0018003800340076006200C100CDB
:1057500018183E7E0000000000000000000000005D
:105760000000000000000000000000000000000039
:1057700000000000000000007E7C181818083008A7
:105780003008300460046004C002C002C00280011E
:10579000800180018000800080004C003C000000FF
:1057A00000000000000000000000000000000000F9
:1057B0000000000000000000FC1F0C0C040E04069A
:1057C000000380038001C000E000702030203830EA
:1057D0001C18FC1F0000000000000000000000007A
:1057E0000000000000300008000400040004000471
:1057F000000400040004000400040004000280010E
:10580000000200040004000400040004000400047A
:10581000000400040004000400080030000000013F
:105820000001000100010001000100010001000170
:105830000001000100010001000100010001000160
:105840000001000100010001000100010001000150
:105850000001000100010001000100010001000041
:10586000000000000C00100020002000200020009C
:1058700020002000200020002000200040008001A7
:1058800040002000200020002000200020002000F8
:10589000200020002000200010000C00000000006C
:1058A0003800C400864002610022001C0000000095
:1058B00000000000000000000000000000000000E8
:1058C00000000000000000000000000000000000D8
:1058D0000000000000000000000000000000D1C730
:1058E0000000FE3F20022002200220022222242269
:1058F00024122812280A200220022002FF7F000022
:10590000B2A9040A0412F47F0402E43F3F22E43FF8
:105910002422E43F24220410F47F441084108414D1
:105920000408D6C704007C3E12221022FF2228223F
:10593000443E0200F80F08080808F80F0808080895
:10594000F80F0808C4DC080224224212FF0E80026D
:1059500000427E42427C42007E224212420E7E0281
:1059600042425242227C0000885900080000002078
:1059700094000000441800081C5A000894000020FD
:10598000340400005418000800A24A04000000007B
:1059900000000000010203040607080900000000DF
:1059A00001020304010203040607080902040608B1
:1059B0000000000000D200000000803F0000000056
:1059C00000000000000000000000000000000000D7
:1059D00000000000000000000000000000000000C7
:1059E00000000000000000000000000000000000B7
:1059F00000000000000000000000000000000000A7
:105A00000000000000000000000000000000000096
:0C5A1000CDCC4C3F52499D3900000000F5
:0400000508000131BD
:00000001FF
